{
  "address": "0xff67B22AD5c8c6EAA2EA2302EEe6b2333cA0c2cb",
  "abi": [
    {
      "anonymous": false,
      "inputs": [
        {
          "indexed": true,
          "internalType": "bytes32",
          "name": "requestId",
          "type": "bytes32"
        },
        {
          "indexed": false,
          "internalType": "uint256",
          "name": "randomNumber",
          "type": "uint256"
        }
      ],
      "name": "RandomFulfilled",
      "type": "event"
    },
    {
      "anonymous": false,
      "inputs": [
        {
          "indexed": true,
          "internalType": "bytes32",
          "name": "requestId",
          "type": "bytes32"
        },
        {
          "indexed": true,
          "internalType": "uint256",
          "name": "flowRequestId",
          "type": "uint256"
        }
      ],
      "name": "RandomRequested",
      "type": "event"
    },
    {
      "anonymous": false,
      "inputs": [
        {
          "indexed": true,
          "internalType": "uint256",
          "name": "requestId",
          "type": "uint256"
        },
        {
          "indexed": false,
          "internalType": "uint64",
          "name": "randomResult",
          "type": "uint64"
        }
      ],
      "name": "RandomnessFulfilled",
      "type": "event"
    },
    {
      "anonymous": false,
      "inputs": [
        {
          "indexed": true,
          "internalType": "uint256",
          "name": "requestId",
          "type": "uint256"
        },
        {
          "indexed": false,
          "internalType": "uint64",
          "name": "flowHeight",
          "type": "uint64"
        },
        {
          "indexed": false,
          "internalType": "uint256",
          "name": "evmHeight",
          "type": "uint256"
        }
      ],
      "name": "RandomnessRequested",
      "type": "event"
    },
    {
      "anonymous": false,
      "inputs": [
        {
          "indexed": true,
          "internalType": "uint256",
          "name": "requestId",
          "type": "uint256"
        },
        {
          "indexed": false,
          "internalType": "uint64",
          "name": "flowHeight",
          "type": "uint64"
        },
        {
          "indexed": false,
          "internalType": "uint256",
          "name": "evmHeight",
          "type": "uint256"
        },
        {
          "indexed": false,
          "internalType": "bytes32",
          "name": "randomSource",
          "type": "bytes32"
        }
      ],
      "name": "RandomnessSourced",
      "type": "event"
    },
    {
      "inputs": [
        {
          "internalType": "uint256",
          "name": "requestId",
          "type": "uint256"
        }
      ],
      "name": "canFulfillRequest",
      "outputs": [
        {
          "internalType": "bool",
          "name": "",
          "type": "bool"
        }
      ],
      "stateMutability": "view",
      "type": "function"
    },
    {
      "inputs": [
        {
          "internalType": "uint256",
          "name": "requestId",
          "type": "uint256"
        }
      ],
      "name": "getRandomNumber",
      "outputs": [
        {
          "internalType": "uint256",
          "name": "",
          "type": "uint256"
        }
      ],
      "stateMutability": "nonpayable",
      "type": "function"
    },
    {
      "inputs": [
        {
          "internalType": "bytes32",
          "name": "_userRandomNumber",
          "type": "bytes32"
        }
      ],
      "name": "requestRandomNumber",
      "outputs": [
        {
          "internalType": "uint256",
          "name": "",
          "type": "uint256"
        }
      ],
      "stateMutability": "payable",
      "type": "function"
    }
  ],
  "transactionHash": "0x1294f76b6bd3f07061c428bf0bf458658f93bbb5089bafbecf0c3fb4fb526172",
  "args": [],
  "numDeployments": 1,
  "solcInputHash": "0df58f8c92a5f1be515a242128b87306",
  "bytecode": "0x6080604052348015600f57600080fd5b50610e8f8061001f6000396000f3fe6080604052600436106100345760003560e01c8063b37217a414610039578063bd313d781461006c578063d59fd63c1461007f575b600080fd5b34801561004557600080fd5b50610059610054366004610ca1565b6100af565b6040519081526020015b60405180910390f35b61005961007a366004610ca1565b6100d5565b34801561008b57600080fd5b5061009f61009a366004610ca1565b6100e7565b6040519015158152602001610063565b6000806100c58360006001600160401b03610165565b6001600160401b03169392505050565b6000806100e0610223565b9392505050565b6000806100f5600184610cd0565b600054909150811061010a5750600092915050565b600080828154811061011e5761011e610ce3565b906000526020600020906003020190506000610138610364565b600283015490915060ff1615801561015c575081546001600160401b038083169116105b95945050505050565b6000806101718561049b565b60405160200161018391815260200190565b60408051601f198184030181528282526020830188905292506000910160408051601f198184030181528282019091526000808352602083015291506101ca8184846105e0565b60006101d7828888610713565b6040516001600160401b038216815290915088907fe3e452ff947e18cea0f62f23d405e522ac808f69346c5f59ddc4bd722ac10d039060200160405180910390a2979650505050505050565b600180546000918261023483610cf9565b91905055506000600154905060006040518060600160405280610255610364565b6001600160401b0390811682524360208084019190915260006040938401819052805460018101825590805284517f290decd9548b62a8d60345a988386fc84ba6bc95484008f6362f93160ef3e5636003909202918201805467ffffffffffffffff191691909416908117909355848201517f290decd9548b62a8d60345a988386fc84ba6bc95484008f6362f93160ef3e5648201819055858501517f290decd9548b62a8d60345a988386fc84ba6bc95484008f6362f93160ef3e565909201805460ff19169215159290921790915583519283529082015291925083917f7886956edccde10901843c3e51fc26016455e9248e210a29c2a57ead63ad226e910160405180910390a250919050565b60408051600481526024810182526020810180516001600160e01b03166329f43eb360e11b17905290516000918291829168010000000000000001916103aa9190610d42565b600060405180830381855afa9150503d80600081146103e5576040519150601f19603f3d011682016040523d82523d6000602084013e6103ea565b606091505b50915091508161047d5760405162461bcd60e51b815260206004820152604d60248201527f556e7375636365737366756c2063616c6c20746f20436164656e63652041726360448201527f68207072652d636f6d70696c65207768656e206665746368696e6720466c6f7760648201526c08189b1bd8dac81a195a59da1d609a1b608482015260a4015b60405180910390fd5b6000818060200190518101906104939190610d4e565b949350505050565b6000806104a9600184610cd0565b600054909150811061052e5760405162461bcd60e51b815260206004820152604260248201527f496e76616c69642072657175657374204944202d2076616c756520657863656560448201527f647320746865206e756d626572206f66206578697374696e6720726571756573606482015261747360f01b608482015260a401610474565b600080828154811061054257610542610ce3565b9060005260206000209060030201905061055b81610842565b60028101805460ff191660011790558054600090610581906001600160401b031661092e565b82546001840154604080516001600160401b0390931683526020830191909152810182905290915085907f01f207584638dfbb3f1d85bba3809672fcb07a3d2e291308293ba78b7f1984909060600160405180910390a2949350505050565b6010825110156106665760405162461bcd60e51b815260206004820152604560248201527f4174206c65617374203136206279746573206f6620656e74726f70792073686f60448201527f756c642062652075736564207768656e20696e697469616c697a696e67207468606482015264652050524760d81b608482015260a401610474565b6000828260405160200161067b929190610d77565b60405160208183030381529060405290506000818051906020012090506106c4816040516020016106ae91815260200190565b6040516020818303038152906040526000610a6a565b6001600160401b0316855260408051602081018390526106f591016040516020818303038152906040526008610a6a565b6001600160401b0316602086015261070c85610b16565b5050505050565b6000826001600160401b0316826001600160401b0316116107765760405162461bcd60e51b815260206004820152601c60248201527f4d6178206d7573742062652067726561746572207468616e206d696e000000006044820152606401610474565b60006107828484610d8c565b9050600061078f82610bac565b905060006107aa60016001600160401b03841681901b610cd0565b905060006107ba83610100610db3565b6001600160401b0316905060008060006107d38b610be2565b90505b8481169150866001600160401b0316826001600160401b03161115610829576001600160401b0386161c8261080a81610cf9565b9350508383036108245761081d8b610be2565b9050600092505b6107d6565b610833828b610de7565b9b9a5050505050505050505050565b600281015460ff16156108975760405162461bcd60e51b815260206004820152601960248201527f5265717565737420616c72656164792066756c66696c6c6564000000000000006044820152606401610474565b61089f610364565b81546001600160401b0391821691161061092b5760405162461bcd60e51b815260206004820152604160248201527f43616e6e6f742066756c66696c6c207265717565737420756e74696c2073756260448201527f73657175656e7420466c6f77206e6574776f726b20626c6f636b2068656967686064820152601d60fa1b608482015260a401610474565b50565b6040516001600160401b038216602482015260009081908190680100000000000000019060440160408051601f198184030181529181526020820180516001600160e01b0316633c53afdf60e11b1790525161098a9190610d42565b600060405180830381855afa9150503d80600081146109c5576040519150601f19603f3d011682016040523d82523d6000602084013e6109ca565b606091505b509150915081610a545760405162461bcd60e51b815260206004820152604960248201527f556e7375636365737366756c2063616c6c20746f20436164656e63652041726360448201527f68207072652d636f6d70696c65207768656e206665746368696e672072616e646064820152686f6d20736f7572636560b81b608482015260a401610474565b60008180602001905181019061015c9190610e07565b6000610a77826008610e20565b83511015610abd5760405162461bcd60e51b8152602060048201526013602482015272092dcecc2d8d2c840c4f2e8ca40d8cadccee8d606b1b6044820152606401610474565b6000805b6008811015610b0c5784610ad58286610e20565b81518110610ae557610ae5610ce3565b60209101015160f81c60089290921b68ffffffffffffffff00169190911790600101610ac1565b5090505b92915050565b80516001600160401b0316151580610b3a575060208101516001600160401b031615155b61092b5760405162461bcd60e51b815260206004820152603860248201527f50524720696e697469616c2073746174652069732030202d206d75737420626560448201527f20696e697469616c697a6564206173206e6f6e2d7a65726f00000000000000006064820152608401610474565b6000805b6001600160401b03831615610b10576001836001600160401b0316901c92508080610bda90610e33565b915050610bb0565b600080610bee83610c44565b6001600160401b031690506040610c0484610c44565b6001600160401b0316901b176080610c1b84610c44565b6001600160401b0316901b1760c0610c3284610c44565b6001600160401b0316901b1792915050565b6000610c4f82610b16565b5080516020820180516001600160401b03808216909452601783901b6a7fffffffffffffff80000016909218601181901c657fffffffffff1618601a83901c643fffffffff1683181892831690520190565b600060208284031215610cb357600080fd5b5035919050565b634e487b7160e01b600052601160045260246000fd5b81810381811115610b1057610b10610cba565b634e487b7160e01b600052603260045260246000fd5b600060018201610d0b57610d0b610cba565b5060010190565b6000815160005b81811015610d335760208185018101518683015201610d19565b50600093019283525090919050565b60006100e08284610d12565b600060208284031215610d6057600080fd5b81516001600160401b03811681146100e057600080fd5b6000610493610d868386610d12565b84610d12565b6001600160401b03828116828216039080821115610dac57610dac610cba565b5092915050565b60006001600160401b0380841680610ddb57634e487b7160e01b600052601260045260246000fd5b92169190910492915050565b6001600160401b03818116838216019080821115610dac57610dac610cba565b600060208284031215610e1957600080fd5b5051919050565b80820180821115610b1057610b10610cba565b60006001600160401b03808316818103610e4f57610e4f610cba565b600101939250505056fea26469706673582212205dd5398eaa55d92b0cd31a7d0c38ccf89aff7b4e99b0d4cae903f2cc31ac9a8c64736f6c63430008190033",
  "devdoc": {
    "details": "Flow VRF implementation using Flow's native secure randomness Implements the IVRF interface for compatibility with DealOrNot contract",
    "kind": "dev",
    "methods": {
      "canFulfillRequest(uint256)": {
        "details": "This method checks if a request can be fulfilled.",
        "params": {
          "requestId": "The ID of the randomness request to check."
        },
        "returns": {
          "_0": "canFulfill Whether the request can be fulfilled."
        }
      },
      "getRandomNumber(uint256)": {
        "details": "Get the random number for a request",
        "params": {
          "requestId": "The request ID returned by requestRandomNumber"
        },
        "returns": {
          "_0": "The random number from Flow's VRF"
        }
      },
      "requestRandomNumber(bytes32)": {
        "details": "Request a random number using Flow's native VRF",
        "params": {
          "_userRandomNumber": "Additional entropy from user (can be used for extra randomness)"
        },
        "returns": {
          "_0": "requestId The unique identifier for this random number request"
        }
      }
    },
    "version": 1
  },
  "userdoc": {
    "kind": "user",
    "methods": {},
    "version": 1
  },
  "storageLayout": {
    "storage": [
      {
        "astId": 163,
        "contract": "contracts/vrf/flow.sol:FlowVRF",
        "label": "_requests",
        "offset": 0,
        "slot": "0",
        "type": "t_array(t_struct(Request)135_storage)dyn_storage"
      },
      {
        "astId": 165,
        "contract": "contracts/vrf/flow.sol:FlowVRF",
        "label": "_requestCounter",
        "offset": 0,
        "slot": "1",
        "type": "t_uint256"
      }
    ],
    "types": {
      "t_array(t_struct(Request)135_storage)dyn_storage": {
        "base": "t_struct(Request)135_storage",
        "encoding": "dynamic_array",
        "label": "struct CadenceRandomConsumer.Request[]",
        "numberOfBytes": "32"
      },
      "t_bool": {
        "encoding": "inplace",
        "label": "bool",
        "numberOfBytes": "1"
      },
      "t_struct(Request)135_storage": {
        "encoding": "inplace",
        "label": "struct CadenceRandomConsumer.Request",
        "members": [
          {
            "astId": 130,
            "contract": "contracts/vrf/flow.sol:FlowVRF",
            "label": "flowHeight",
            "offset": 0,
            "slot": "0",
            "type": "t_uint64"
          },
          {
            "astId": 132,
            "contract": "contracts/vrf/flow.sol:FlowVRF",
            "label": "evmHeight",
            "offset": 0,
            "slot": "1",
            "type": "t_uint256"
          },
          {
            "astId": 134,
            "contract": "contracts/vrf/flow.sol:FlowVRF",
            "label": "fulfilled",
            "offset": 0,
            "slot": "2",
            "type": "t_bool"
          }
        ],
        "numberOfBytes": "96"
      },
      "t_uint256": {
        "encoding": "inplace",
        "label": "uint256",
        "numberOfBytes": "32"
      },
      "t_uint64": {
        "encoding": "inplace",
        "label": "uint64",
        "numberOfBytes": "8"
      }
    }
  }
}