{
  "address": "0x0E15bd4D20c0e59d1fe5723292637aB012960af4",
  "abi": [
    {
      "inputs": [
        {
          "internalType": "address",
          "name": "_owner",
          "type": "address"
        },
        {
          "internalType": "address",
          "name": "_vrf",
          "type": "address"
        },
        {
          "internalType": "bool",
          "name": "_isMonad",
          "type": "bool"
        }
      ],
      "stateMutability": "nonpayable",
      "type": "constructor"
    },
    {
      "inputs": [
        {
          "internalType": "address",
          "name": "owner",
          "type": "address"
        }
      ],
      "name": "OwnableInvalidOwner",
      "type": "error"
    },
    {
      "inputs": [
        {
          "internalType": "address",
          "name": "account",
          "type": "address"
        }
      ],
      "name": "OwnableUnauthorizedAccount",
      "type": "error"
    },
    {
      "inputs": [],
      "name": "ReentrancyGuardReentrantCall",
      "type": "error"
    },
    {
      "anonymous": false,
      "inputs": [
        {
          "indexed": true,
          "internalType": "uint256",
          "name": "gameId",
          "type": "uint256"
        },
        {
          "indexed": false,
          "internalType": "uint256[]",
          "name": "eliminatedBoxes",
          "type": "uint256[]"
        },
        {
          "indexed": false,
          "internalType": "uint256",
          "name": "round",
          "type": "uint256"
        }
      ],
      "name": "BoxesEliminated",
      "type": "event"
    },
    {
      "anonymous": false,
      "inputs": [
        {
          "indexed": true,
          "internalType": "uint256",
          "name": "gameId",
          "type": "uint256"
        },
        {
          "indexed": true,
          "internalType": "address",
          "name": "player",
          "type": "address"
        },
        {
          "indexed": false,
          "internalType": "uint256",
          "name": "payout",
          "type": "uint256"
        }
      ],
      "name": "DealAccepted",
      "type": "event"
    },
    {
      "anonymous": false,
      "inputs": [
        {
          "indexed": true,
          "internalType": "uint256",
          "name": "gameId",
          "type": "uint256"
        },
        {
          "indexed": false,
          "internalType": "uint256",
          "name": "round",
          "type": "uint256"
        }
      ],
      "name": "DealRejected",
      "type": "event"
    },
    {
      "anonymous": false,
      "inputs": [
        {
          "indexed": true,
          "internalType": "uint256",
          "name": "gameId",
          "type": "uint256"
        },
        {
          "indexed": true,
          "internalType": "address",
          "name": "player",
          "type": "address"
        },
        {
          "indexed": false,
          "internalType": "uint256",
          "name": "finalPayout",
          "type": "uint256"
        }
      ],
      "name": "GameCompleted",
      "type": "event"
    },
    {
      "anonymous": false,
      "inputs": [
        {
          "indexed": true,
          "internalType": "uint256",
          "name": "gameId",
          "type": "uint256"
        },
        {
          "indexed": true,
          "internalType": "address",
          "name": "player",
          "type": "address"
        },
        {
          "indexed": false,
          "internalType": "uint256",
          "name": "playerBox",
          "type": "uint256"
        }
      ],
      "name": "GameStarted",
      "type": "event"
    },
    {
      "anonymous": false,
      "inputs": [
        {
          "indexed": false,
          "internalType": "uint256",
          "name": "amount",
          "type": "uint256"
        }
      ],
      "name": "HouseFundsDeposited",
      "type": "event"
    },
    {
      "anonymous": false,
      "inputs": [
        {
          "indexed": false,
          "internalType": "uint256",
          "name": "amount",
          "type": "uint256"
        }
      ],
      "name": "HouseFundsWithdrawn",
      "type": "event"
    },
    {
      "anonymous": false,
      "inputs": [
        {
          "indexed": true,
          "internalType": "address",
          "name": "previousOwner",
          "type": "address"
        },
        {
          "indexed": true,
          "internalType": "address",
          "name": "newOwner",
          "type": "address"
        }
      ],
      "name": "OwnershipTransferred",
      "type": "event"
    },
    {
      "inputs": [],
      "name": "ENTRY_FEE",
      "outputs": [
        {
          "internalType": "uint256",
          "name": "",
          "type": "uint256"
        }
      ],
      "stateMutability": "view",
      "type": "function"
    },
    {
      "inputs": [],
      "name": "HOUSE_OFFER_PERCENTAGE",
      "outputs": [
        {
          "internalType": "uint256",
          "name": "",
          "type": "uint256"
        }
      ],
      "stateMutability": "view",
      "type": "function"
    },
    {
      "inputs": [],
      "name": "TOTAL_BOXES",
      "outputs": [
        {
          "internalType": "uint256",
          "name": "",
          "type": "uint256"
        }
      ],
      "stateMutability": "view",
      "type": "function"
    },
    {
      "inputs": [
        {
          "internalType": "uint256",
          "name": "gameId",
          "type": "uint256"
        }
      ],
      "name": "acceptDeal",
      "outputs": [],
      "stateMutability": "nonpayable",
      "type": "function"
    },
    {
      "inputs": [],
      "name": "depositHouseFunds",
      "outputs": [],
      "stateMutability": "payable",
      "type": "function"
    },
    {
      "inputs": [
        {
          "internalType": "uint256",
          "name": "gameId",
          "type": "uint256"
        }
      ],
      "name": "eliminateBoxes",
      "outputs": [],
      "stateMutability": "payable",
      "type": "function"
    },
    {
      "inputs": [
        {
          "internalType": "address",
          "name": "",
          "type": "address"
        }
      ],
      "name": "gameIds",
      "outputs": [
        {
          "internalType": "uint256",
          "name": "",
          "type": "uint256"
        }
      ],
      "stateMutability": "view",
      "type": "function"
    },
    {
      "inputs": [
        {
          "internalType": "uint256",
          "name": "",
          "type": "uint256"
        }
      ],
      "name": "games",
      "outputs": [
        {
          "internalType": "address",
          "name": "player",
          "type": "address"
        },
        {
          "internalType": "uint256",
          "name": "deposit",
          "type": "uint256"
        },
        {
          "internalType": "uint256",
          "name": "gameId",
          "type": "uint256"
        },
        {
          "internalType": "uint256",
          "name": "playerBoxIndex",
          "type": "uint256"
        },
        {
          "internalType": "uint256",
          "name": "currentRound",
          "type": "uint256"
        },
        {
          "internalType": "enum DealOrNot.GameState",
          "name": "state",
          "type": "uint8"
        },
        {
          "internalType": "bool",
          "name": "isActive",
          "type": "bool"
        }
      ],
      "stateMutability": "view",
      "type": "function"
    },
    {
      "inputs": [
        {
          "internalType": "uint256",
          "name": "boxIndex",
          "type": "uint256"
        }
      ],
      "name": "getBoxValue",
      "outputs": [
        {
          "internalType": "uint256",
          "name": "",
          "type": "uint256"
        }
      ],
      "stateMutability": "view",
      "type": "function"
    },
    {
      "inputs": [
        {
          "internalType": "uint256",
          "name": "gameId",
          "type": "uint256"
        }
      ],
      "name": "getCurrentOffer",
      "outputs": [
        {
          "internalType": "uint256",
          "name": "",
          "type": "uint256"
        }
      ],
      "stateMutability": "view",
      "type": "function"
    },
    {
      "inputs": [
        {
          "internalType": "uint256",
          "name": "gameId",
          "type": "uint256"
        }
      ],
      "name": "getEliminatedBoxes",
      "outputs": [
        {
          "internalType": "uint256[]",
          "name": "",
          "type": "uint256[]"
        }
      ],
      "stateMutability": "view",
      "type": "function"
    },
    {
      "inputs": [
        {
          "internalType": "uint256",
          "name": "gameId",
          "type": "uint256"
        }
      ],
      "name": "getGameState",
      "outputs": [
        {
          "components": [
            {
              "internalType": "address",
              "name": "player",
              "type": "address"
            },
            {
              "internalType": "uint256",
              "name": "deposit",
              "type": "uint256"
            },
            {
              "internalType": "uint256",
              "name": "gameId",
              "type": "uint256"
            },
            {
              "internalType": "uint256",
              "name": "playerBoxIndex",
              "type": "uint256"
            },
            {
              "internalType": "uint256",
              "name": "currentRound",
              "type": "uint256"
            },
            {
              "internalType": "uint256[]",
              "name": "eliminatedBoxes",
              "type": "uint256[]"
            },
            {
              "internalType": "enum DealOrNot.GameState",
              "name": "state",
              "type": "uint8"
            },
            {
              "internalType": "bool",
              "name": "isActive",
              "type": "bool"
            }
          ],
          "internalType": "struct DealOrNot.Game",
          "name": "",
          "type": "tuple"
        }
      ],
      "stateMutability": "view",
      "type": "function"
    },
    {
      "inputs": [],
      "name": "getHouseFunds",
      "outputs": [
        {
          "internalType": "uint256",
          "name": "",
          "type": "uint256"
        }
      ],
      "stateMutability": "view",
      "type": "function"
    },
    {
      "inputs": [
        {
          "internalType": "address",
          "name": "player",
          "type": "address"
        }
      ],
      "name": "getPlayerGames",
      "outputs": [
        {
          "internalType": "uint256[]",
          "name": "",
          "type": "uint256[]"
        }
      ],
      "stateMutability": "view",
      "type": "function"
    },
    {
      "inputs": [],
      "name": "getPrizePool",
      "outputs": [
        {
          "internalType": "uint256[]",
          "name": "",
          "type": "uint256[]"
        }
      ],
      "stateMutability": "view",
      "type": "function"
    },
    {
      "inputs": [
        {
          "internalType": "uint256",
          "name": "gameId",
          "type": "uint256"
        }
      ],
      "name": "getRemainingBoxes",
      "outputs": [
        {
          "internalType": "uint256[]",
          "name": "",
          "type": "uint256[]"
        }
      ],
      "stateMutability": "view",
      "type": "function"
    },
    {
      "inputs": [],
      "name": "getTotalGames",
      "outputs": [
        {
          "internalType": "uint256",
          "name": "",
          "type": "uint256"
        }
      ],
      "stateMutability": "view",
      "type": "function"
    },
    {
      "inputs": [],
      "name": "houseFunds",
      "outputs": [
        {
          "internalType": "uint256",
          "name": "",
          "type": "uint256"
        }
      ],
      "stateMutability": "view",
      "type": "function"
    },
    {
      "inputs": [],
      "name": "isMonad",
      "outputs": [
        {
          "internalType": "bool",
          "name": "",
          "type": "bool"
        }
      ],
      "stateMutability": "view",
      "type": "function"
    },
    {
      "inputs": [],
      "name": "nextGameId",
      "outputs": [
        {
          "internalType": "uint256",
          "name": "",
          "type": "uint256"
        }
      ],
      "stateMutability": "view",
      "type": "function"
    },
    {
      "inputs": [],
      "name": "owner",
      "outputs": [
        {
          "internalType": "address",
          "name": "",
          "type": "address"
        }
      ],
      "stateMutability": "view",
      "type": "function"
    },
    {
      "inputs": [
        {
          "internalType": "address",
          "name": "",
          "type": "address"
        },
        {
          "internalType": "uint256",
          "name": "",
          "type": "uint256"
        }
      ],
      "name": "playerGames",
      "outputs": [
        {
          "internalType": "uint256",
          "name": "",
          "type": "uint256"
        }
      ],
      "stateMutability": "view",
      "type": "function"
    },
    {
      "inputs": [
        {
          "internalType": "uint256",
          "name": "",
          "type": "uint256"
        }
      ],
      "name": "prizePool",
      "outputs": [
        {
          "internalType": "uint256",
          "name": "",
          "type": "uint256"
        }
      ],
      "stateMutability": "view",
      "type": "function"
    },
    {
      "inputs": [],
      "name": "renounceOwnership",
      "outputs": [],
      "stateMutability": "nonpayable",
      "type": "function"
    },
    {
      "inputs": [
        {
          "internalType": "uint256",
          "name": "",
          "type": "uint256"
        }
      ],
      "name": "requestIds",
      "outputs": [
        {
          "internalType": "uint256",
          "name": "",
          "type": "uint256"
        }
      ],
      "stateMutability": "view",
      "type": "function"
    },
    {
      "inputs": [
        {
          "internalType": "uint256",
          "name": "",
          "type": "uint256"
        }
      ],
      "name": "roundEliminations",
      "outputs": [
        {
          "internalType": "uint256",
          "name": "",
          "type": "uint256"
        }
      ],
      "stateMutability": "view",
      "type": "function"
    },
    {
      "inputs": [],
      "name": "startGame",
      "outputs": [
        {
          "internalType": "uint256",
          "name": "",
          "type": "uint256"
        }
      ],
      "stateMutability": "payable",
      "type": "function"
    },
    {
      "inputs": [
        {
          "internalType": "address",
          "name": "newOwner",
          "type": "address"
        }
      ],
      "name": "transferOwnership",
      "outputs": [],
      "stateMutability": "nonpayable",
      "type": "function"
    },
    {
      "inputs": [],
      "name": "vrf",
      "outputs": [
        {
          "internalType": "contract IVRF",
          "name": "",
          "type": "address"
        }
      ],
      "stateMutability": "view",
      "type": "function"
    },
    {
      "inputs": [
        {
          "internalType": "uint256",
          "name": "amount",
          "type": "uint256"
        }
      ],
      "name": "withdrawHouseFunds",
      "outputs": [],
      "stateMutability": "nonpayable",
      "type": "function"
    },
    {
      "stateMutability": "payable",
      "type": "receive"
    }
  ],
  "transactionHash": "0xb1cf445f25a19d91b5d5d91573be080a1fb33b935a2fdafa5c12af10193b7b1f",
  "args": [
    "0x8B3FD4dfdC5c8381a613d4018840359118eeaade",
    "0x126a323267dA7C30e48C13743efd9979ebe6E205",
    true
  ],
  "numDeployments": 6,
  "solcInputHash": "8cd71aed0de79575fb2c1968d3933b08",
  "bytecode": "0x61014060405260066080818152600560a052600460c052600360e05260026101005260016101205261003491600b91906102ba565b5034801561004157600080fd5b506040516124eb3803806124eb83398101604081905261006091610381565b6001600055826001600160a01b03811661009457604051631e4fbdf760e01b81526000600482015260240160405180910390fd5b61009d816100d7565b50600a80546001600160a01b0319166001600160a01b0384161790556003805460ff19168215151790556100cf610129565b5050506103cd565b600180546001600160a01b038381166001600160a01b0319831681179093556040519116919082907f8be0079c531659141344cd1fd0a4f28419497f9722a3daafe3b4186f6b6457e090600090a35050565b60408051610340810182526509184e72a0008152655af3107a400060208201526601c6bf526340009181019190915266038d7ea4c6800060608201526608e1bc9bf0400060808201526611c37937e0800060a0820152661aa535d3d0c00060c0820152662386f26fc1000060e082015266470de4df820000610100820152666a94d74f430000610120820152668e1bc9bf04000061014082015266b1a2bc2ec5000061016082015267010a741a4627800061018082015267016345785d8a00006101a08201526706f05b59d3b200006101c0820152670de0b6b3a76400006101e08201526722b1c8c1227a0000610200820152674563918244f400006102208201526768155a43676e0000610240820152678ac7230489e800006102608201526801158e460913d000006102808201526801a055690d9db800006102a082015268022b1c8c1227a000006102c08201526802b5e3af16b18800006102e0820152680410d586a20a4c000061030082015268056bc75e2d631000006103208201526102b790600290601a61030a565b50565b8280548282559060005260206000209081019282156102fa579160200282015b828111156102fa578251829060ff169055916020019190600101906102da565b50610306929150610350565b5090565b8280548282559060005260206000209081019282156102fa579160200282015b828111156102fa57825182906001600160481b031690559160200191906001019061032a565b5b808211156103065760008155600101610351565b80516001600160a01b038116811461037c57600080fd5b919050565b60008060006060848603121561039657600080fd5b61039f84610365565b92506103ad60208501610365565b9150604084015180151581146103c257600080fd5b809150509250925092565b61210f806103dc6000396000f3fe6080604052600436106101d15760003560e01c8063884bf67c116100f7578063d47a879c11610095578063dd4823bf11610064578063dd4823bf14610594578063f2fde38b146105a9578063f6d361cc146105c9578063ffde0c74146105e557600080fd5b8063d47a879c14610544578063d636e6fa14610557578063d65ab5f214610577578063d65eba341461057f57600080fd5b8063a07ccee9116100d1578063a07ccee9146104e6578063abfd4cf9146104ee578063b135bbb01461050e578063c8c057d01461052457600080fd5b8063884bf67c146104935780638914d7f3146104a85780638da5cb5b146104c857600080fd5b8063665a9e5f1161016f5780637d59441a1161013e5780637d59441a146104065780637e0d29f7146104265780638535f86e1461043c5780638796ba8c1461046657600080fd5b8063665a9e5f14610382578063715018a6146103af57806373948035146103c65780637d41702e146103e657600080fd5b8063129daf84116101ab578063129daf841461030b578063373692dc146103385780635bd4349b1461034d578063655796ce1461036257600080fd5b80630a5694c2146102275780630c9490431461025a578063117a5b901461029257600080fd5b366102225734600960008282546101e89190611db0565b90915550506040513481527f698c6b09e77d6ec12d764617264649ec58ae335c4a80b921d92ee2e44cd2dc559060200160405180910390a1005b600080fd5b34801561023357600080fd5b50610247610242366004611ddf565b610612565b6040519081526020015b60405180910390f35b34801561026657600080fd5b50600a5461027a906001600160a01b031681565b6040516001600160a01b039091168152602001610251565b34801561029e57600080fd5b506102f86102ad366004611e09565b6005602052600090815260409020805460018201546002830154600384015460048501546006909501546001600160a01b039094169492939192909160ff8082169161010090041687565b6040516102519796959493929190611e5a565b34801561031757600080fd5b5061032b610326366004611ea7565b610643565b6040516102519190611efe565b34801561034457600080fd5b50610247601a81565b34801561035957600080fd5b50600854610247565b34801561036e57600080fd5b5061024761037d366004611e09565b6106af565b34801561038e57600080fd5b5061024761039d366004611ea7565b60046020526000908152604090205481565b3480156103bb57600080fd5b506103c46106d0565b005b3480156103d257600080fd5b5061032b6103e1366004611e09565b6106e4565b3480156103f257600080fd5b506103c4610401366004611e09565b610848565b34801561041257600080fd5b506103c4610421366004611e09565b610aa4565b34801561043257600080fd5b5061024760095481565b34801561044857600080fd5b506003546104569060ff1681565b6040519015158152602001610251565b34801561047257600080fd5b50610247610481366004611e09565b60076020526000908152604090205481565b34801561049f57600080fd5b5061032b610be8565b3480156104b457600080fd5b506102476104c3366004611e09565b610c40565b3480156104d457600080fd5b506001546001600160a01b031661027a565b6103c4610c74565b3480156104fa57600080fd5b5061032b610509366004611e09565b610cc8565b34801561051a57600080fd5b5061024760085481565b34801561053057600080fd5b5061024761053f366004611e09565b610d50565b6103c4610552366004611e09565b610dbb565b34801561056357600080fd5b50610247610572366004611e09565b6110e8565b6102476110f8565b34801561058b57600080fd5b50610247604b81565b3480156105a057600080fd5b50600954610247565b3480156105b557600080fd5b506103c46105c4366004611ea7565b611430565b3480156105d557600080fd5b5061024767016345785d8a000081565b3480156105f157600080fd5b50610605610600366004611e09565b61146b565b6040516102519190611f11565b6006602052816000526040600020818154811061062e57600080fd5b90600052602060002001600091509150505481565b6001600160a01b0381166000908152600660209081526040918290208054835181840281018401909452808452606093928301828280156106a357602002820191906000526020600020905b81548152602001906001019080831161068f575b50505050509050919050565b600b81815481106106bf57600080fd5b600091825260209091200154905081565b6106d8611587565b6106e260006115b4565b565b60608160085481106107115760405162461bcd60e51b815260040161070890611fc4565b60405180910390fd5b600083815260056020819052604082209081015490919060019061073690601a611ff1565b6107409190611ff1565b905060008167ffffffffffffffff81111561075d5761075d612004565b604051908082528060200260200182016040528015610786578160200160208202803683370190505b5090506000805b601a81101561083c5784600301548114158015610803575061080181866005018054806020026020016040519081016040528092919081815260200182805480156107f757602002820191906000526020600020905b8154815260200190600101908083116107e3575b5050505050611606565b155b15610834578083838151811061081b5761081b61201a565b60209081029190910101528161083081612030565b9250505b60010161078d565b50909695505050505050565b80600854811061086a5760405162461bcd60e51b815260040161070890611fc4565b60008281526005602052604090205482906001600160a01b031633146108c25760405162461bcd60e51b815260206004820152600d60248201526c4e6f7420796f75722067616d6560981b6044820152606401610708565b8260028060008381526005602052604090206006015460ff1660048111156108ec576108ec611e22565b1461092e5760405162461bcd60e51b8152602060048201526012602482015271496e76616c69642067616d6520737461746560701b6044820152606401610708565b610936611651565b61093f8561167b565b80600954101561098c5760405162461bcd60e51b8152602060048201526018602482015277486f75736520696e73756666696369656e742066756e647360401b6044820152606401610708565b6000868152600560205260408120906109a48861167b565b60068301805461ffff191660031790556009805491925082916000906109cb908490611ff1565b909155505081546040516001600160a01b039091169082156108fc029083906000818181858888f19350505050158015610a09573d6000803e3d6000fd5b5081546040518281526001600160a01b039091169089907f4040b057894dad8489aa292521553397cd14fa0e341f6e6c9b646f78154efd1c9060200160405180910390a381546040518281526001600160a01b039091169089907ff6ae188cc6336ef5ad970d3c81cda5814b4c4902540924c6924debe94ece13eb9060200160405180910390a3505050610a9d6001600055565b5050505050565b610aac611587565b610ab4611651565b600954811115610b065760405162461bcd60e51b815260206004820152601860248201527f496e73756666696369656e7420686f7573652066756e647300000000000000006044820152606401610708565b47811115610b565760405162461bcd60e51b815260206004820152601d60248201527f496e73756666696369656e7420636f6e74726163742062616c616e63650000006044820152606401610708565b8060096000828254610b689190611ff1565b90915550506001546040516001600160a01b039091169082156108fc029083906000818181858888f19350505050158015610ba7573d6000803e3d6000fd5b506040518181527fe474834969d675e228bf44a31064bc4f07a62bf4073d488e004ff38078575acf9060200160405180910390a1610be56001600055565b50565b60606002805480602002602001604051908101604052809291908181526020018280548015610c3657602002820191906000526020600020905b815481526020019060010190808311610c22575b5050505050905090565b6000816008548110610c645760405162461bcd60e51b815260040161070890611fc4565b610c6d8361167b565b9392505050565b610c7c611587565b3460096000828254610c8e9190611db0565b90915550506040513481527f698c6b09e77d6ec12d764617264649ec58ae335c4a80b921d92ee2e44cd2dc559060200160405180910390a1565b6060816008548110610cec5760405162461bcd60e51b815260040161070890611fc4565b60008381526005602081815260409283902090910180548351818402810184019094528084529091830182828015610d4357602002820191906000526020600020905b815481526020019060010190808311610d2f575b5050505050915050919050565b6000601a8210610d965760405162461bcd60e51b8152602060048201526011602482015270092dcecc2d8d2c840c4def040d2dcc8caf607b1b6044820152606401610708565b60028281548110610da957610da961201a565b90600052602060002001549050919050565b806008548110610ddd5760405162461bcd60e51b815260040161070890611fc4565b60008281526005602052604090205482906001600160a01b03163314610e355760405162461bcd60e51b815260206004820152600d60248201526c4e6f7420796f75722067616d6560981b6044820152606401610708565b610e3d611651565b60008381526005602052604090206001600682015460ff166004811115610e6657610e66611e22565b1480610e8a57506002600682015460ff166004811115610e8857610e88611e22565b145b610ecb5760405162461bcd60e51b8152602060048201526012602482015271496e76616c69642067616d6520737461746560701b6044820152606401610708565b6002600682015460ff166004811115610ee657610ee6611e22565b03610f2a57837f084c4e8dbed002b0fe4ec01207ee9d6c85c1b98a93cfad7a51407dd25f5a14288260040154604051610f2191815260200190565b60405180910390a25b600b54600482015410610f4657610f40846117b0565b506110d9565b6000600b826004015481548110610f5f57610f5f61201a565b906000526020600020015490506000610f7886836118e0565b6004840180549192506000610f8c83612030565b909155505060068301805460ff19166002179055600483015460405187917fdc5195a0a717d87adda811cfdff4a54ca7bcb612e76854d81b13c20612b6fe5791610fd7918591612049565b60405180910390a2600a5460408051632d971e6360e01b815290516000926001600160a01b031691632d971e639160048083019260209291908290030181865afa158015611029573d6000803e3d6000fd5b505050506040513d601f19601f8201168201806040525081019061104d919061206b565b600a546040516317a627af60e31b8152600481018a90529192506000916001600160a01b039091169063bd313d7890849060240160206040518083038185885af115801561109f573d6000803e3d6000fd5b50505050506040513d601f19601f820116820180604052508101906110c4919061206b565b60008981526007602052604090205550505050505b6110e36001600055565b505050565b600281815481106106bf57600080fd5b6000611102611651565b67016345785d8a000034146111595760405162461bcd60e51b815260206004820152601c60248201527f4d757374206465706f7369742065786163746c7920302e3120455448000000006044820152606401610708565b600880546000918261116a83612030565b919050559050600061117c8233611c11565b9050604051806101000160405280336001600160a01b0316815260200134815260200183815260200182815260200160008152602001600067ffffffffffffffff8111156111cc576111cc612004565b6040519080825280602002602001820160405280156111f5578160200160208202803683370190505b508152602001600181526001602091820181905260008581526005808452604091829020855181546001600160a01b0319166001600160a01b039091161781558585015193810193909355908401516002830155606084015160038301556080840151600483015560a0840151805192936112769392850192910190611cdb565b5060c082015160068201805460ff1916600183600481111561129a5761129a611e22565b021790555060e09190910151600691820180549115156101000261ff0019909216919091179055336000818152602092835260408082208054600181018255908352848320018690559181526004808452828220869055600a548351632d971e6360e01b8152935192946001600160a01b039190911693632d971e63938184019390918290030181865afa158015611336573d6000803e3d6000fd5b505050506040513d601f19601f8201168201806040525081019061135a919061206b565b600a546040516317a627af60e31b8152600481018690529192506000916001600160a01b039091169063bd313d7890849060240160206040518083038185885af11580156113ac573d6000803e3d6000fd5b50505050506040513d601f19601f820116820180604052508101906113d1919061206b565b6000858152600760205260409081902082905551909150339085907f0c82908456d66c43e9de63edd66f9faf875c8f3a12f936e162d675ec42c354449061141b9087815260200190565b60405180910390a35050600160005550905090565b611438611587565b6001600160a01b03811661146257604051631e4fbdf760e01b815260006004820152602401610708565b610be5816115b4565b611473611d26565b8160085481106114955760405162461bcd60e51b815260040161070890611fc4565b60008381526005602081815260409283902083516101008101855281546001600160a01b03168152600182015481840152600282015481860152600382015460608201526004820154608082015292810180548551818502810185019096528086529394919360a086019383018282801561152f57602002820191906000526020600020905b81548152602001906001019080831161151b575b5050509183525050600682015460209091019060ff16600481111561155657611556611e22565b600481111561156757611567611e22565b815260069190910154610100900460ff1615156020909101529392505050565b6001546001600160a01b031633146106e25760405163118cdaa760e01b8152336004820152602401610708565b600180546001600160a01b038381166001600160a01b0319831681179093556040519116919082907f8be0079c531659141344cd1fd0a4f28419497f9722a3daafe3b4186f6b6457e090600090a35050565b6000805b825181101561164557838382815181106116265761162661201a565b60200260200101510361163d57600191505061164b565b60010161160a565b50600090505b92915050565b60026000540361167457604051633ee5aeb560e01b815260040160405180910390fd5b6002600055565b600081815260056020526040812060038101546002805484929081106116a3576116a361201a565b9060005260206000200154816116b99190611db0565b905060005b601a81101561176b5782600301548114158015611732575061173081846005018054806020026020016040519081016040528092919081815260200182805480156107f757602002820191906000526020600020908154815260200190600101908083116107e3575050505050611606565b155b15611763576002818154811061174a5761174a61201a565b9060005260206000200154826117609190611db0565b91505b6001016116be565b50600582015460009061177f90601a611ff1565b9050600061178d828461209a565b9050606461179c604b836120ae565b6117a6919061209a565b9695505050505050565b600081815260056020526040812060038101546002805492939290919081106117db576117db61201a565b60009182526020909120015460068301805461ffff191660041790556009549091508111156118475760405162461bcd60e51b8152602060048201526018602482015277486f75736520696e73756666696369656e742066756e647360401b6044820152606401610708565b80600960008282546118599190611ff1565b909155505081546040516001600160a01b039091169082156108fc029083906000818181858888f19350505050158015611897573d6000803e3d6000fd5b5081546040518281526001600160a01b039091169084907ff6ae188cc6336ef5ad970d3c81cda5814b4c4902540924c6924debe94ece13eb9060200160405180910390a3505050565b6000828152600560208190526040822090810154606092600161190483601a611ff1565b61190e9190611ff1565b9050848110156119605760405162461bcd60e51b815260206004820152601d60248201527f4e6f7420656e6f75676820626f78657320746f20656c696d696e6174650000006044820152606401610708565b60008167ffffffffffffffff81111561197b5761197b612004565b6040519080825280602002602001820160405280156119a4578160200160208202803683370190505b5090506000805b601a811015611a0b57856003015481141580156119d257506119d08187600501611c8b565b155b15611a0357808383815181106119ea576119ea61201a565b6020908102919091010152816119ff81612030565b9250505b6001016119ab565b5060008767ffffffffffffffff811115611a2757611a27612004565b604051908082528060200260200182016040528015611a50578160200160208202803683370190505b50600a5460008b815260076020526040808220549051632cdc85e960e21b81526004810191909152929350916001600160a01b039091169063b37217a4906024016020604051808303816000875af1158015611ab0573d6000803e3d6000fd5b505050506040513d601f19601f82011682018060405250810190611ad4919061206b565b905060005b89811015611c0257604080516020810184905290810182905242606082015244608082015260009060a00160408051601f19818403018152919052805160209091012090506000611b2a8389611ff1565b611b3490836120c5565b9050868181518110611b4857611b4861201a565b6020026020010151858481518110611b6257611b6261201a565b60209081029190910101528683611b7a60018b611ff1565b611b849190611ff1565b81518110611b9457611b9461201a565b6020026020010151878281518110611bae57611bae61201a565b60200260200101818152505089600501858481518110611bd057611bd061201a565b60209081029190910181015182546001818101855560009485529290932090920191909155929092019150611ad99050565b50909998505050505050505050565b60008042448486611c23600143611ff1565b6040805160208101969096528501939093526bffffffffffffffffffffffff19606092831b1691840191909152607483015240609482015260b40160408051601f1981840301815291905280516020909101209050611c83601a826120c5565b949350505050565b8054600090815b81811015611cd05784848281548110611cad57611cad61201a565b906000526020600020015403611cc85760019250505061164b565b600101611c92565b506000949350505050565b828054828255906000526020600020908101928215611d16579160200282015b82811115611d16578251825591602001919060010190611cfb565b50611d22929150611d85565b5090565b60405180610100016040528060006001600160a01b03168152602001600081526020016000815260200160008152602001600081526020016060815260200160006004811115611d7857611d78611e22565b8152600060209091015290565b5b80821115611d225760008155600101611d86565b634e487b7160e01b600052601160045260246000fd5b8082018082111561164b5761164b611d9a565b80356001600160a01b0381168114611dda57600080fd5b919050565b60008060408385031215611df257600080fd5b611dfb83611dc3565b946020939093013593505050565b600060208284031215611e1b57600080fd5b5035919050565b634e487b7160e01b600052602160045260246000fd5b60058110611e5657634e487b7160e01b600052602160045260246000fd5b9052565b6001600160a01b03881681526020810187905260408101869052606081018590526080810184905260e08101611e9360a0830185611e38565b82151560c083015298975050505050505050565b600060208284031215611eb957600080fd5b610c6d82611dc3565b60008151808452602080850194506020840160005b83811015611ef357815187529582019590820190600101611ed7565b509495945050505050565b602081526000610c6d6020830184611ec2565b60006020808352610120830160018060a01b03855116828501528185015160408501526040850151606085015260608501516080850152608085015160a085015260a08501516101008060c0870152828251808552610140880191508584019450600093505b80841015611f975784518252938501936001939093019290850190611f77565b5060c08801519450611fac60e0880186611e38565b60e09790970151151595019490945250929392505050565b60208082526013908201527211d85b5948191bd95cc81b9bdd08195e1a5cdd606a1b604082015260600190565b8181038181111561164b5761164b611d9a565b634e487b7160e01b600052604160045260246000fd5b634e487b7160e01b600052603260045260246000fd5b60006001820161204257612042611d9a565b5060010190565b60408152600061205c6040830185611ec2565b90508260208301529392505050565b60006020828403121561207d57600080fd5b5051919050565b634e487b7160e01b600052601260045260246000fd5b6000826120a9576120a9612084565b500490565b808202811582820484141761164b5761164b611d9a565b6000826120d4576120d4612084565b50069056fea2646970667358221220db876d938e2a5b01fb617d19afb9de2c8b3b7f6b47a0269e0ad997a8b7218c7264736f6c63430008190033",
  "devdoc": {
    "author": "BuidlGuidl",
    "errors": {
      "OwnableInvalidOwner(address)": [
        {
          "details": "The owner is not a valid owner account. (eg. `address(0)`)"
        }
      ],
      "OwnableUnauthorizedAccount(address)": [
        {
          "details": "The caller account is not authorized to perform an operation."
        }
      ],
      "ReentrancyGuardReentrantCall()": [
        {
          "details": "Unauthorized reentrant call."
        }
      ]
    },
    "kind": "dev",
    "methods": {
      "owner()": {
        "details": "Returns the address of the current owner."
      },
      "renounceOwnership()": {
        "details": "Leaves the contract without owner. It will not be possible to call `onlyOwner` functions. Can only be called by the current owner. NOTE: Renouncing ownership will leave the contract without an owner, thereby disabling any functionality that is only available to the owner."
      },
      "transferOwnership(address)": {
        "details": "Transfers ownership of the contract to a new account (`newOwner`). Can only be called by the current owner."
      }
    },
    "version": 1
  },
  "userdoc": {
    "kind": "user",
    "methods": {
      "acceptDeal(uint256)": {
        "notice": "Accept the current deal offer"
      },
      "depositHouseFunds()": {
        "notice": "Owner deposits funds to house"
      },
      "eliminateBoxes(uint256)": {
        "notice": "Eliminate boxes for the current round (randomly selected) - OPTIMIZED If called when an offer is pending, it implicitly rejects the offer"
      },
      "getGameState(uint256)": {
        "notice": "View functions"
      },
      "startGame()": {
        "notice": "Start a new game - player deposits 1 ETH and selects their box"
      },
      "withdrawHouseFunds(uint256)": {
        "notice": "Owner withdraws house funds"
      }
    },
    "notice": "A Deal or Not smart contract that allows multiple players to play concurrent games Players deposit 1 ETH to start a game and can win up to 30 ETH House offers 75% of expected value at the end of each round",
    "version": 1
  },
  "storageLayout": {
    "storage": [
      {
        "astId": 188,
        "contract": "contracts/DealOrNot.sol:DealOrNot",
        "label": "_status",
        "offset": 0,
        "slot": "0",
        "type": "t_uint256"
      },
      {
        "astId": 8,
        "contract": "contracts/DealOrNot.sol:DealOrNot",
        "label": "_owner",
        "offset": 0,
        "slot": "1",
        "type": "t_address"
      },
      {
        "astId": 285,
        "contract": "contracts/DealOrNot.sol:DealOrNot",
        "label": "prizePool",
        "offset": 0,
        "slot": "2",
        "type": "t_array(t_uint256)dyn_storage"
      },
      {
        "astId": 287,
        "contract": "contracts/DealOrNot.sol:DealOrNot",
        "label": "isMonad",
        "offset": 0,
        "slot": "3",
        "type": "t_bool"
      },
      {
        "astId": 291,
        "contract": "contracts/DealOrNot.sol:DealOrNot",
        "label": "gameIds",
        "offset": 0,
        "slot": "4",
        "type": "t_mapping(t_address,t_uint256)"
      },
      {
        "astId": 296,
        "contract": "contracts/DealOrNot.sol:DealOrNot",
        "label": "games",
        "offset": 0,
        "slot": "5",
        "type": "t_mapping(t_uint256,t_struct(Game)282_storage)"
      },
      {
        "astId": 301,
        "contract": "contracts/DealOrNot.sol:DealOrNot",
        "label": "playerGames",
        "offset": 0,
        "slot": "6",
        "type": "t_mapping(t_address,t_array(t_uint256)dyn_storage)"
      },
      {
        "astId": 305,
        "contract": "contracts/DealOrNot.sol:DealOrNot",
        "label": "requestIds",
        "offset": 0,
        "slot": "7",
        "type": "t_mapping(t_uint256,t_uint256)"
      },
      {
        "astId": 307,
        "contract": "contracts/DealOrNot.sol:DealOrNot",
        "label": "nextGameId",
        "offset": 0,
        "slot": "8",
        "type": "t_uint256"
      },
      {
        "astId": 309,
        "contract": "contracts/DealOrNot.sol:DealOrNot",
        "label": "houseFunds",
        "offset": 0,
        "slot": "9",
        "type": "t_uint256"
      },
      {
        "astId": 321,
        "contract": "contracts/DealOrNot.sol:DealOrNot",
        "label": "vrf",
        "offset": 0,
        "slot": "10",
        "type": "t_contract(IVRF)1522"
      },
      {
        "astId": 331,
        "contract": "contracts/DealOrNot.sol:DealOrNot",
        "label": "roundEliminations",
        "offset": 0,
        "slot": "11",
        "type": "t_array(t_uint256)dyn_storage"
      }
    ],
    "types": {
      "t_address": {
        "encoding": "inplace",
        "label": "address",
        "numberOfBytes": "20"
      },
      "t_array(t_uint256)dyn_storage": {
        "base": "t_uint256",
        "encoding": "dynamic_array",
        "label": "uint256[]",
        "numberOfBytes": "32"
      },
      "t_bool": {
        "encoding": "inplace",
        "label": "bool",
        "numberOfBytes": "1"
      },
      "t_contract(IVRF)1522": {
        "encoding": "inplace",
        "label": "contract IVRF",
        "numberOfBytes": "20"
      },
      "t_enum(GameState)263": {
        "encoding": "inplace",
        "label": "enum DealOrNot.GameState",
        "numberOfBytes": "1"
      },
      "t_mapping(t_address,t_array(t_uint256)dyn_storage)": {
        "encoding": "mapping",
        "key": "t_address",
        "label": "mapping(address => uint256[])",
        "numberOfBytes": "32",
        "value": "t_array(t_uint256)dyn_storage"
      },
      "t_mapping(t_address,t_uint256)": {
        "encoding": "mapping",
        "key": "t_address",
        "label": "mapping(address => uint256)",
        "numberOfBytes": "32",
        "value": "t_uint256"
      },
      "t_mapping(t_uint256,t_struct(Game)282_storage)": {
        "encoding": "mapping",
        "key": "t_uint256",
        "label": "mapping(uint256 => struct DealOrNot.Game)",
        "numberOfBytes": "32",
        "value": "t_struct(Game)282_storage"
      },
      "t_mapping(t_uint256,t_uint256)": {
        "encoding": "mapping",
        "key": "t_uint256",
        "label": "mapping(uint256 => uint256)",
        "numberOfBytes": "32",
        "value": "t_uint256"
      },
      "t_struct(Game)282_storage": {
        "encoding": "inplace",
        "label": "struct DealOrNot.Game",
        "members": [
          {
            "astId": 265,
            "contract": "contracts/DealOrNot.sol:DealOrNot",
            "label": "player",
            "offset": 0,
            "slot": "0",
            "type": "t_address"
          },
          {
            "astId": 267,
            "contract": "contracts/DealOrNot.sol:DealOrNot",
            "label": "deposit",
            "offset": 0,
            "slot": "1",
            "type": "t_uint256"
          },
          {
            "astId": 269,
            "contract": "contracts/DealOrNot.sol:DealOrNot",
            "label": "gameId",
            "offset": 0,
            "slot": "2",
            "type": "t_uint256"
          },
          {
            "astId": 271,
            "contract": "contracts/DealOrNot.sol:DealOrNot",
            "label": "playerBoxIndex",
            "offset": 0,
            "slot": "3",
            "type": "t_uint256"
          },
          {
            "astId": 273,
            "contract": "contracts/DealOrNot.sol:DealOrNot",
            "label": "currentRound",
            "offset": 0,
            "slot": "4",
            "type": "t_uint256"
          },
          {
            "astId": 276,
            "contract": "contracts/DealOrNot.sol:DealOrNot",
            "label": "eliminatedBoxes",
            "offset": 0,
            "slot": "5",
            "type": "t_array(t_uint256)dyn_storage"
          },
          {
            "astId": 279,
            "contract": "contracts/DealOrNot.sol:DealOrNot",
            "label": "state",
            "offset": 0,
            "slot": "6",
            "type": "t_enum(GameState)263"
          },
          {
            "astId": 281,
            "contract": "contracts/DealOrNot.sol:DealOrNot",
            "label": "isActive",
            "offset": 1,
            "slot": "6",
            "type": "t_bool"
          }
        ],
        "numberOfBytes": "224"
      },
      "t_uint256": {
        "encoding": "inplace",
        "label": "uint256",
        "numberOfBytes": "32"
      }
    }
  }
}