{
  "address": "0xCc08bBe28cbB02067E8012627bF07f4194b83c73",
  "abi": [
    {
      "inputs": [
        {
          "internalType": "address",
          "name": "_owner",
          "type": "address"
        },
        {
          "internalType": "address",
          "name": "_vrf",
          "type": "address"
        },
        {
          "internalType": "bool",
          "name": "_isMonad",
          "type": "bool"
        },
        {
          "internalType": "address",
          "name": "_gameToken",
          "type": "address"
        }
      ],
      "stateMutability": "nonpayable",
      "type": "constructor"
    },
    {
      "inputs": [
        {
          "internalType": "address",
          "name": "owner",
          "type": "address"
        }
      ],
      "name": "OwnableInvalidOwner",
      "type": "error"
    },
    {
      "inputs": [
        {
          "internalType": "address",
          "name": "account",
          "type": "address"
        }
      ],
      "name": "OwnableUnauthorizedAccount",
      "type": "error"
    },
    {
      "inputs": [],
      "name": "ReentrancyGuardReentrantCall",
      "type": "error"
    },
    {
      "inputs": [
        {
          "internalType": "address",
          "name": "token",
          "type": "address"
        }
      ],
      "name": "SafeERC20FailedOperation",
      "type": "error"
    },
    {
      "anonymous": false,
      "inputs": [
        {
          "indexed": true,
          "internalType": "uint256",
          "name": "gameId",
          "type": "uint256"
        },
        {
          "indexed": false,
          "internalType": "uint256[]",
          "name": "eliminatedBoxes",
          "type": "uint256[]"
        },
        {
          "indexed": false,
          "internalType": "uint256",
          "name": "round",
          "type": "uint256"
        }
      ],
      "name": "BoxesEliminated",
      "type": "event"
    },
    {
      "anonymous": false,
      "inputs": [
        {
          "indexed": true,
          "internalType": "uint256",
          "name": "gameId",
          "type": "uint256"
        },
        {
          "indexed": true,
          "internalType": "address",
          "name": "player",
          "type": "address"
        },
        {
          "indexed": false,
          "internalType": "uint256",
          "name": "payout",
          "type": "uint256"
        }
      ],
      "name": "DealAccepted",
      "type": "event"
    },
    {
      "anonymous": false,
      "inputs": [
        {
          "indexed": true,
          "internalType": "uint256",
          "name": "gameId",
          "type": "uint256"
        },
        {
          "indexed": false,
          "internalType": "uint256",
          "name": "round",
          "type": "uint256"
        }
      ],
      "name": "DealRejected",
      "type": "event"
    },
    {
      "anonymous": false,
      "inputs": [
        {
          "indexed": true,
          "internalType": "uint256",
          "name": "gameId",
          "type": "uint256"
        },
        {
          "indexed": true,
          "internalType": "address",
          "name": "player",
          "type": "address"
        },
        {
          "indexed": false,
          "internalType": "uint256",
          "name": "finalPayout",
          "type": "uint256"
        }
      ],
      "name": "GameCompleted",
      "type": "event"
    },
    {
      "anonymous": false,
      "inputs": [
        {
          "indexed": true,
          "internalType": "uint256",
          "name": "gameId",
          "type": "uint256"
        },
        {
          "indexed": true,
          "internalType": "address",
          "name": "player",
          "type": "address"
        },
        {
          "indexed": false,
          "internalType": "uint256",
          "name": "playerBox",
          "type": "uint256"
        }
      ],
      "name": "GameStarted",
      "type": "event"
    },
    {
      "anonymous": false,
      "inputs": [
        {
          "indexed": false,
          "internalType": "uint256",
          "name": "amount",
          "type": "uint256"
        }
      ],
      "name": "HouseFundsDeposited",
      "type": "event"
    },
    {
      "anonymous": false,
      "inputs": [
        {
          "indexed": false,
          "internalType": "uint256",
          "name": "amount",
          "type": "uint256"
        }
      ],
      "name": "HouseFundsWithdrawn",
      "type": "event"
    },
    {
      "anonymous": false,
      "inputs": [
        {
          "indexed": true,
          "internalType": "address",
          "name": "previousOwner",
          "type": "address"
        },
        {
          "indexed": true,
          "internalType": "address",
          "name": "newOwner",
          "type": "address"
        }
      ],
      "name": "OwnershipTransferred",
      "type": "event"
    },
    {
      "inputs": [],
      "name": "HOUSE_OFFER_PERCENTAGE",
      "outputs": [
        {
          "internalType": "uint256",
          "name": "",
          "type": "uint256"
        }
      ],
      "stateMutability": "view",
      "type": "function"
    },
    {
      "inputs": [],
      "name": "TOTAL_BOXES",
      "outputs": [
        {
          "internalType": "uint256",
          "name": "",
          "type": "uint256"
        }
      ],
      "stateMutability": "view",
      "type": "function"
    },
    {
      "inputs": [
        {
          "internalType": "uint256",
          "name": "gameId",
          "type": "uint256"
        }
      ],
      "name": "acceptDeal",
      "outputs": [],
      "stateMutability": "nonpayable",
      "type": "function"
    },
    {
      "inputs": [
        {
          "internalType": "uint256",
          "name": "amount",
          "type": "uint256"
        }
      ],
      "name": "depositHouseFunds",
      "outputs": [],
      "stateMutability": "nonpayable",
      "type": "function"
    },
    {
      "inputs": [
        {
          "internalType": "uint256",
          "name": "gameId",
          "type": "uint256"
        }
      ],
      "name": "eliminateBoxes",
      "outputs": [],
      "stateMutability": "nonpayable",
      "type": "function"
    },
    {
      "inputs": [
        {
          "internalType": "address",
          "name": "",
          "type": "address"
        }
      ],
      "name": "gameIds",
      "outputs": [
        {
          "internalType": "uint256",
          "name": "",
          "type": "uint256"
        }
      ],
      "stateMutability": "view",
      "type": "function"
    },
    {
      "inputs": [],
      "name": "gameToken",
      "outputs": [
        {
          "internalType": "contract IERC20",
          "name": "",
          "type": "address"
        }
      ],
      "stateMutability": "view",
      "type": "function"
    },
    {
      "inputs": [
        {
          "internalType": "uint256",
          "name": "",
          "type": "uint256"
        }
      ],
      "name": "games",
      "outputs": [
        {
          "internalType": "address",
          "name": "player",
          "type": "address"
        },
        {
          "internalType": "uint256",
          "name": "deposit",
          "type": "uint256"
        },
        {
          "internalType": "uint256",
          "name": "entryFee",
          "type": "uint256"
        },
        {
          "internalType": "uint256",
          "name": "gameId",
          "type": "uint256"
        },
        {
          "internalType": "uint256",
          "name": "playerBoxIndex",
          "type": "uint256"
        },
        {
          "internalType": "uint256",
          "name": "currentRound",
          "type": "uint256"
        },
        {
          "internalType": "enum DealOrNot.GameState",
          "name": "state",
          "type": "uint8"
        },
        {
          "internalType": "bool",
          "name": "isActive",
          "type": "bool"
        }
      ],
      "stateMutability": "view",
      "type": "function"
    },
    {
      "inputs": [
        {
          "internalType": "uint256",
          "name": "gameId",
          "type": "uint256"
        },
        {
          "internalType": "uint256",
          "name": "boxIndex",
          "type": "uint256"
        }
      ],
      "name": "getBoxValue",
      "outputs": [
        {
          "internalType": "uint256",
          "name": "",
          "type": "uint256"
        }
      ],
      "stateMutability": "view",
      "type": "function"
    },
    {
      "inputs": [
        {
          "internalType": "uint256",
          "name": "gameId",
          "type": "uint256"
        }
      ],
      "name": "getCurrentOffer",
      "outputs": [
        {
          "internalType": "uint256",
          "name": "",
          "type": "uint256"
        }
      ],
      "stateMutability": "view",
      "type": "function"
    },
    {
      "inputs": [
        {
          "internalType": "uint256",
          "name": "gameId",
          "type": "uint256"
        }
      ],
      "name": "getEliminatedBoxes",
      "outputs": [
        {
          "internalType": "uint256[]",
          "name": "",
          "type": "uint256[]"
        }
      ],
      "stateMutability": "view",
      "type": "function"
    },
    {
      "inputs": [
        {
          "internalType": "uint256",
          "name": "gameId",
          "type": "uint256"
        }
      ],
      "name": "getGameState",
      "outputs": [
        {
          "components": [
            {
              "internalType": "address",
              "name": "player",
              "type": "address"
            },
            {
              "internalType": "uint256",
              "name": "deposit",
              "type": "uint256"
            },
            {
              "internalType": "uint256",
              "name": "entryFee",
              "type": "uint256"
            },
            {
              "internalType": "uint256",
              "name": "gameId",
              "type": "uint256"
            },
            {
              "internalType": "uint256",
              "name": "playerBoxIndex",
              "type": "uint256"
            },
            {
              "internalType": "uint256",
              "name": "currentRound",
              "type": "uint256"
            },
            {
              "internalType": "uint256[]",
              "name": "eliminatedBoxes",
              "type": "uint256[]"
            },
            {
              "internalType": "enum DealOrNot.GameState",
              "name": "state",
              "type": "uint8"
            },
            {
              "internalType": "bool",
              "name": "isActive",
              "type": "bool"
            }
          ],
          "internalType": "struct DealOrNot.Game",
          "name": "",
          "type": "tuple"
        }
      ],
      "stateMutability": "view",
      "type": "function"
    },
    {
      "inputs": [],
      "name": "getHouseFunds",
      "outputs": [
        {
          "internalType": "uint256",
          "name": "",
          "type": "uint256"
        }
      ],
      "stateMutability": "view",
      "type": "function"
    },
    {
      "inputs": [
        {
          "internalType": "address",
          "name": "player",
          "type": "address"
        }
      ],
      "name": "getPlayerGames",
      "outputs": [
        {
          "internalType": "uint256[]",
          "name": "",
          "type": "uint256[]"
        }
      ],
      "stateMutability": "view",
      "type": "function"
    },
    {
      "inputs": [
        {
          "internalType": "uint256",
          "name": "gameId",
          "type": "uint256"
        }
      ],
      "name": "getPrizePool",
      "outputs": [
        {
          "internalType": "uint256[]",
          "name": "",
          "type": "uint256[]"
        }
      ],
      "stateMutability": "view",
      "type": "function"
    },
    {
      "inputs": [
        {
          "internalType": "uint256",
          "name": "gameId",
          "type": "uint256"
        }
      ],
      "name": "getRemainingBoxes",
      "outputs": [
        {
          "internalType": "uint256[]",
          "name": "",
          "type": "uint256[]"
        }
      ],
      "stateMutability": "view",
      "type": "function"
    },
    {
      "inputs": [],
      "name": "getTotalGames",
      "outputs": [
        {
          "internalType": "uint256",
          "name": "",
          "type": "uint256"
        }
      ],
      "stateMutability": "view",
      "type": "function"
    },
    {
      "inputs": [],
      "name": "houseFunds",
      "outputs": [
        {
          "internalType": "uint256",
          "name": "",
          "type": "uint256"
        }
      ],
      "stateMutability": "view",
      "type": "function"
    },
    {
      "inputs": [],
      "name": "isMonad",
      "outputs": [
        {
          "internalType": "bool",
          "name": "",
          "type": "bool"
        }
      ],
      "stateMutability": "view",
      "type": "function"
    },
    {
      "inputs": [],
      "name": "nextGameId",
      "outputs": [
        {
          "internalType": "uint256",
          "name": "",
          "type": "uint256"
        }
      ],
      "stateMutability": "view",
      "type": "function"
    },
    {
      "inputs": [],
      "name": "owner",
      "outputs": [
        {
          "internalType": "address",
          "name": "",
          "type": "address"
        }
      ],
      "stateMutability": "view",
      "type": "function"
    },
    {
      "inputs": [
        {
          "internalType": "address",
          "name": "",
          "type": "address"
        },
        {
          "internalType": "uint256",
          "name": "",
          "type": "uint256"
        }
      ],
      "name": "playerGames",
      "outputs": [
        {
          "internalType": "uint256",
          "name": "",
          "type": "uint256"
        }
      ],
      "stateMutability": "view",
      "type": "function"
    },
    {
      "inputs": [],
      "name": "renounceOwnership",
      "outputs": [],
      "stateMutability": "nonpayable",
      "type": "function"
    },
    {
      "inputs": [
        {
          "internalType": "uint256",
          "name": "",
          "type": "uint256"
        }
      ],
      "name": "requestIds",
      "outputs": [
        {
          "internalType": "uint256",
          "name": "",
          "type": "uint256"
        }
      ],
      "stateMutability": "view",
      "type": "function"
    },
    {
      "inputs": [
        {
          "internalType": "uint256",
          "name": "",
          "type": "uint256"
        }
      ],
      "name": "roundEliminations",
      "outputs": [
        {
          "internalType": "uint256",
          "name": "",
          "type": "uint256"
        }
      ],
      "stateMutability": "view",
      "type": "function"
    },
    {
      "inputs": [
        {
          "internalType": "uint256",
          "name": "entryFee",
          "type": "uint256"
        }
      ],
      "name": "startGame",
      "outputs": [
        {
          "internalType": "uint256",
          "name": "",
          "type": "uint256"
        }
      ],
      "stateMutability": "nonpayable",
      "type": "function"
    },
    {
      "inputs": [
        {
          "internalType": "address",
          "name": "newOwner",
          "type": "address"
        }
      ],
      "name": "transferOwnership",
      "outputs": [],
      "stateMutability": "nonpayable",
      "type": "function"
    },
    {
      "inputs": [],
      "name": "vrf",
      "outputs": [
        {
          "internalType": "contract IVRF",
          "name": "",
          "type": "address"
        }
      ],
      "stateMutability": "view",
      "type": "function"
    },
    {
      "inputs": [
        {
          "internalType": "uint256",
          "name": "amount",
          "type": "uint256"
        }
      ],
      "name": "withdrawHouseFunds",
      "outputs": [],
      "stateMutability": "nonpayable",
      "type": "function"
    },
    {
      "stateMutability": "payable",
      "type": "receive"
    }
  ],
  "transactionHash": "0x653ef2329cdc8897696a475ca6a30389b024e64b8913f0e18a1891638fa82f91",
  "args": [
    "0x654B45fAdB36731BBB81571B649Ccd7E6a8c2CEF",
    "0x126a323267dA7C30e48C13743efd9979ebe6E205",
    true,
    "0xaEef2f6B429Cb59C9B2D7bB2141ADa993E8571c3"
  ],
  "numDeployments": 7,
  "solcInputHash": "77f7c63bf375facf1f5e4495e334df32",
  "bytecode": "0x61014060405260066080818152600560a052600460c052600360e05260026101005260016101205261003491600a9190610198565b5034801561004157600080fd5b50604051612a03380380612a0383398101604081905261006091610219565b6001600055836001600160a01b03811661009557604051631e4fbdf760e01b8152600060048201526024015b60405180910390fd5b61009e81610146565b506001600160a01b0381166100ff5760405162461bcd60e51b815260206004820152602160248201527f47616d6520746f6b656e2063616e6e6f74206265207a65726f206164647265736044820152607360f81b606482015260840161008c565b600980546001600160a01b039485166001600160a01b0319918216179091556002805492909416921515600160a01b02166001600160a81b03199091161717905550610274565b600180546001600160a01b038381166001600160a01b0319831681179093556040519116919082907f8be0079c531659141344cd1fd0a4f28419497f9722a3daafe3b4186f6b6457e090600090a35050565b8280548282559060005260206000209081019282156101d8579160200282015b828111156101d8578251829060ff169055916020019190600101906101b8565b506101e49291506101e8565b5090565b5b808211156101e457600081556001016101e9565b80516001600160a01b038116811461021457600080fd5b919050565b6000806000806080858703121561022f57600080fd5b610238856101fd565b9350610246602086016101fd565b92506040850151801515811461025b57600080fd5b9150610269606086016101fd565b905092959194509250565b612780806102836000396000f3fe6080604052600436106101c65760003560e01c80637e0d29f7116100f7578063c3dfdae611610095578063e5ed1d5911610064578063e5ed1d591461056c578063f2fde38b1461058c578063fbcfd2bb146105ac578063ffde0c74146105cc57600080fd5b8063c3dfdae614610502578063d47a879c14610522578063d65eba3414610542578063dd4823bf1461055757600080fd5b80638914d7f3116100d15780638914d7f31461048e5780638da5cb5b146104ae578063abfd4cf9146104cc578063b135bbb0146104ec57600080fd5b80637e0d29f71461041a5780638535f86e146104305780638796ba8c1461046157600080fd5b8063655796ce11610164578063739480351161013e578063739480351461039a5780637822be4a146103ba5780637d41702e146103da5780637d59441a146103fa57600080fd5b8063655796ce14610338578063665a9e5f14610358578063715018a61461038557600080fd5b8063129daf84116101a0578063129daf84146102bf578063373692dc146102ec5780633dc87443146103015780635bd4349b1461032357600080fd5b80630a5694c2146101d25780630c94904314610205578063117a5b901461023d57600080fd5b366101cd57005b600080fd5b3480156101de57600080fd5b506101f26101ed36600461241d565b6105f9565b6040519081526020015b60405180910390f35b34801561021157600080fd5b50600954610225906001600160a01b031681565b6040516001600160a01b0390911681526020016101fc565b34801561024957600080fd5b506102ab610258366004612447565b600460208190526000918252604090912080546001820154600283015460038401549484015460058501546007909501546001600160a01b03909416959294919390919060ff8082169161010090041688565b6040516101fc989796959493929190612498565b3480156102cb57600080fd5b506102df6102da3660046124ee565b61062a565b6040516101fc9190612545565b3480156102f857600080fd5b506101f2601a81565b34801561030d57600080fd5b5061032161031c366004612447565b610696565b005b34801561032f57600080fd5b506007546101f2565b34801561034457600080fd5b506101f2610353366004612447565b610703565b34801561036457600080fd5b506101f26103733660046124ee565b60036020526000908152604090205481565b34801561039157600080fd5b50610321610724565b3480156103a657600080fd5b506102df6103b5366004612447565b610738565b3480156103c657600080fd5b506102df6103d5366004612447565b61089b565b3480156103e657600080fd5b506103216103f5366004612447565b6108e3565b34801561040657600080fd5b50610321610415366004612447565b610b23565b34801561042657600080fd5b506101f260085481565b34801561043c57600080fd5b5060025461045190600160a01b900460ff1681565b60405190151581526020016101fc565b34801561046d57600080fd5b506101f261047c366004612447565b60066020526000908152604090205481565b34801561049a57600080fd5b506101f26104a9366004612447565b610cba565b3480156104ba57600080fd5b506001546001600160a01b0316610225565b3480156104d857600080fd5b506102df6104e7366004612447565b610cee565b3480156104f857600080fd5b506101f260075481565b34801561050e57600080fd5b50600254610225906001600160a01b031681565b34801561052e57600080fd5b5061032161053d366004612447565b610d76565b34801561054e57600080fd5b506101f2603281565b34801561056357600080fd5b506008546101f2565b34801561057857600080fd5b506101f2610587366004612447565b6110a3565b34801561059857600080fd5b506103216105a73660046124ee565b61140d565b3480156105b857600080fd5b506101f26105c7366004612558565b611448565b3480156105d857600080fd5b506105ec6105e7366004612447565b6114ef565b6040516101fc919061257a565b6005602052816000526040600020818154811061061557600080fd5b90600052602060002001600091509150505481565b6001600160a01b03811660009081526005602090815260409182902080548351818402810184019094528084526060939283018282801561068a57602002820191906000526020600020905b815481526020019060010190808311610676575b50505050509050919050565b61069e611615565b6002546106b6906001600160a01b0316333084611642565b80600860008282546106c89190612622565b90915550506040518181527f698c6b09e77d6ec12d764617264649ec58ae335c4a80b921d92ee2e44cd2dc559060200160405180910390a150565b600a818154811061071357600080fd5b600091825260209091200154905081565b61072c611615565b61073660006116af565b565b60608160075481106107655760405162461bcd60e51b815260040161075c90612635565b60405180910390fd5b6000838152600460205260408120600681015490919060019061078990601a612662565b6107939190612662565b905060008167ffffffffffffffff8111156107b0576107b0612675565b6040519080825280602002602001820160405280156107d9578160200160208202803683370190505b5090506000805b601a81101561088f57846004015481141580156108565750610854818660060180548060200260200160405190810160405280929190818152602001828054801561084a57602002820191906000526020600020905b815481526020019060010190808311610836575b5050505050611701565b155b15610887578083838151811061086e5761086e61268b565b602090810291909101015281610883816126a1565b9250505b6001016107e0565b50909695505050505050565b60608160075481106108bf5760405162461bcd60e51b815260040161075c90612635565b600083815260046020526040902060028101546108db9061174c565b949350505050565b8060075481106109055760405162461bcd60e51b815260040161075c90612635565b60008281526004602052604090205482906001600160a01b0316331461095d5760405162461bcd60e51b815260206004820152600d60248201526c4e6f7420796f75722067616d6560981b604482015260640161075c565b8260028060008381526004602081905260409091206007015460ff169081111561098957610989612460565b146109cb5760405162461bcd60e51b8152602060048201526012602482015271496e76616c69642067616d6520737461746560701b604482015260640161075c565b6109d3611c23565b6109dc85611c4d565b806008541015610a295760405162461bcd60e51b8152602060048201526018602482015277486f75736520696e73756666696369656e742066756e647360401b604482015260640161075c565b600086815260046020526040812090610a4188611c4d565b60078301805461ffff19166003179055600880549192508291600090610a68908490612662565b90915550508154600254610a89916001600160a01b03918216911683611d8c565b81546040518281526001600160a01b039091169089907f4040b057894dad8489aa292521553397cd14fa0e341f6e6c9b646f78154efd1c9060200160405180910390a381546040518281526001600160a01b039091169089907ff6ae188cc6336ef5ad970d3c81cda5814b4c4902540924c6924debe94ece13eb9060200160405180910390a3505050610b1c6001600055565b5050505050565b610b2b611615565b610b33611c23565b600854811115610b855760405162461bcd60e51b815260206004820152601860248201527f496e73756666696369656e7420686f7573652066756e64730000000000000000604482015260640161075c565b6002546040516370a0823160e01b81523060048201526001600160a01b03909116906370a0823190602401602060405180830381865afa158015610bcd573d6000803e3d6000fd5b505050506040513d601f19601f82011682018060405250810190610bf191906126ba565b811115610c405760405162461bcd60e51b815260206004820152601d60248201527f496e73756666696369656e7420636f6e74726163742062616c616e6365000000604482015260640161075c565b8060086000828254610c529190612662565b9091555050600154610c7a906001600160a01b03166002546001600160a01b03169083611d8c565b6040518181527fe474834969d675e228bf44a31064bc4f07a62bf4073d488e004ff38078575acf9060200160405180910390a1610cb76001600055565b50565b6000816007548110610cde5760405162461bcd60e51b815260040161075c90612635565b610ce783611c4d565b9392505050565b6060816007548110610d125760405162461bcd60e51b815260040161075c90612635565b60008381526004602090815260409182902060060180548351818402810184019094528084529091830182828015610d6957602002820191906000526020600020905b815481526020019060010190808311610d55575b5050505050915050919050565b806007548110610d985760405162461bcd60e51b815260040161075c90612635565b60008281526004602052604090205482906001600160a01b03163314610df05760405162461bcd60e51b815260206004820152600d60248201526c4e6f7420796f75722067616d6560981b604482015260640161075c565b610df8611c23565b60008381526004602052604090206001600782015460ff166004811115610e2157610e21612460565b1480610e4557506002600782015460ff166004811115610e4357610e43612460565b145b610e865760405162461bcd60e51b8152602060048201526012602482015271496e76616c69642067616d6520737461746560701b604482015260640161075c565b6002600782015460ff166004811115610ea157610ea1612460565b03610ee557837f084c4e8dbed002b0fe4ec01207ee9d6c85c1b98a93cfad7a51407dd25f5a14288260050154604051610edc91815260200190565b60405180910390a25b600a54600582015410610f0157610efb84611dbd565b50611094565b6000600a826005015481548110610f1a57610f1a61268b565b906000526020600020015490506000610f338683611edd565b6005840180549192506000610f47836126a1565b909155505060078301805460ff19166002179055600583015460405187917fdc5195a0a717d87adda811cfdff4a54ca7bcb612e76854d81b13c20612b6fe5791610f929185916126d3565b60405180910390a260095460408051632d971e6360e01b815290516000926001600160a01b031691632d971e639160048083019260209291908290030181865afa158015610fe4573d6000803e3d6000fd5b505050506040513d601f19601f8201168201806040525081019061100891906126ba565b6009546040516317a627af60e31b8152600481018a90529192506000916001600160a01b039091169063bd313d7890849060240160206040518083038185885af115801561105a573d6000803e3d6000fd5b50505050506040513d601f19601f8201168201806040525081019061107f91906126ba565b60008981526006602052604090205550505050505b61109e6001600055565b505050565b60006110ad611c23565b600082116111095760405162461bcd60e51b815260206004820152602360248201527f456e74727920666565206d7573742062652067726561746572207468616e207a60448201526265726f60e81b606482015260840161075c565b600254611121906001600160a01b0316333085611642565b6007805460009182611132836126a1565b9190505590506000611144823361220d565b9050604051806101200160405280336001600160a01b0316815260200185815260200185815260200183815260200182815260200160008152602001600067ffffffffffffffff81111561119a5761119a612675565b6040519080825280602002602001820160405280156111c3578160200160208202803683370190505b508152602001600181526001602091820181905260008581526004808452604091829020855181546001600160a01b0319166001600160a01b0390911617815585850151938101939093559084015160028301556060840151600383015560808401519082015560a0830151600582015560c08301518051919261124f92600685019290910190612340565b5060e082015160078201805460ff1916600183600481111561127357611273612460565b021790555061010091820151600791909101805461ff001916911515909202179055336000818152600560209081526040808320805460018101825590845282842001869055928252600381528282208590556009548351632d971e6360e01b8152935192936001600160a01b0390911692632d971e63926004808401939192918290030181865afa15801561130d573d6000803e3d6000fd5b505050506040513d601f19601f8201168201806040525081019061133191906126ba565b6009546040516317a627af60e31b8152600481018690529192506000916001600160a01b039091169063bd313d7890849060240160206040518083038185885af1158015611383573d6000803e3d6000fd5b50505050506040513d601f19601f820116820180604052508101906113a891906126ba565b6000858152600660205260409081902082905551909150339085907f0c82908456d66c43e9de63edd66f9faf875c8f3a12f936e162d675ec42c35444906113f29087815260200190565b60405180910390a3505060016000555092915050565b919050565b611415611615565b6001600160a01b03811661143f57604051631e4fbdf760e01b81526000600482015260240161075c565b610cb7816116af565b600082600754811061146c5760405162461bcd60e51b815260040161075c90612635565b601a83106114b05760405162461bcd60e51b8152602060048201526011602482015270092dcecc2d8d2c840c4def040d2dcc8caf607b1b604482015260640161075c565b600084815260046020526040902060028101546114cc9061174c565b84815181106114dd576114dd61268b565b60200260200101519250505092915050565b6114f761238b565b8160075481106115195760405162461bcd60e51b815260040161075c90612635565b60008381526004602081815260409283902083516101208101855281546001600160a01b0316815260018201548184015260028201548186015260038201546060820152928101546080840152600581015460a08401526006810180548551818502810185019096528086529394919360c08601938301828280156115bd57602002820191906000526020600020905b8154815260200190600101908083116115a9575b5050509183525050600782015460209091019060ff1660048111156115e4576115e4612460565b60048111156115f5576115f5612460565b815260079190910154610100900460ff1615156020909101529392505050565b6001546001600160a01b031633146107365760405163118cdaa760e01b815233600482015260240161075c565b6040516001600160a01b0384811660248301528381166044830152606482018390526116a99186918216906323b872dd906084015b604051602081830303815290604052915060e01b6020820180516001600160e01b03838183161783525050505061227f565b50505050565b600180546001600160a01b038381166001600160a01b0319831681179093556040519116919082907f8be0079c531659141344cd1fd0a4f28419497f9722a3daafe3b4186f6b6457e090600090a35050565b6000805b825181101561174057838382815181106117215761172161268b565b602002602001015103611738576001915050611746565b600101611705565b50600090505b92915050565b60408051601a80825261036082019092526060916000919060208201610340803683370190505090506117816127108461270b565b816000815181106117945761179461268b565b60209081029190910101526117ab6103e88461270b565b816001815181106117be576117be61268b565b60209081029190910101526117d460c88461270b565b816002815181106117e7576117e761268b565b60209081029190910101526117fd60648461270b565b816003815181106118105761181061268b565b602090810291909101015261182660288461270b565b816004815181106118395761183961268b565b602090810291909101015261184f60148461270b565b816005815181106118625761186261268b565b60209081029190910101526103e861187b84604b61271f565b611885919061270b565b816006815181106118985761189861268b565b60209081029190910101526118ae600a8461270b565b816007815181106118c1576118c161268b565b60209081029190910101526118d760058461270b565b816008815181106118ea576118ea61268b565b6020908102919091010152600a61190284600361271f565b61190c919061270b565b8160098151811061191f5761191f61268b565b6020908102919091010152600561193784600261271f565b611941919061270b565b81600a815181106119545761195461268b565b602090810291909101015261196a60028461270b565b81600b8151811061197d5761197d61268b565b6020908102919091010152600461199584600361271f565b61199f919061270b565b81600c815181106119b2576119b261268b565b6020026020010181815250508281600d815181106119d2576119d261268b565b602090810291909101015260026119ea84600361271f565b6119f4919061270b565b81600e81518110611a0757611a0761268b565b6020908102919091010152611a1d83600261271f565b81600f81518110611a3057611a3061268b565b60209081029190910101526002611a4884600561271f565b611a52919061270b565b81601081518110611a6557611a6561268b565b6020908102919091010152611a7b83600361271f565b81601181518110611a8e57611a8e61268b565b60209081029190910101526002611aa684600761271f565b611ab0919061270b565b81601281518110611ac357611ac361268b565b60209081029190910101526004611adb84600f61271f565b611ae5919061270b565b81601381518110611af857611af861268b565b6020908102919091010152611b0e83600461271f565b81601481518110611b2157611b2161268b565b60209081029190910101526004611b3984601161271f565b611b43919061270b565b81601581518110611b5657611b5661268b565b60209081029190910101526002611b6e84600961271f565b611b78919061270b565b81601681518110611b8b57611b8b61268b565b6020908102919091010152611ba183600561271f565b81601781518110611bb457611bb461268b565b60209081029190910101526002611bcc84600f61271f565b611bd6919061270b565b81601881518110611be957611be961268b565b6020908102919091010152611bff83600a61271f565b81601981518110611c1257611c1261268b565b602090810291909101015292915050565b600260005403611c4657604051633ee5aeb560e01b815260040160405180910390fd5b6002600055565b600081815260046020526040812060028101548290611c6b9061174c565b9050600081836004015481518110611c8557611c8561268b565b602002602001015181611c989190612622565b905060005b601a811015611d465783600401548114158015611d115750611d0f818560060180548060200260200160405190810160405280929190818152602001828054801561084a5760200282019190600052602060002090815481526020019060010190808311610836575050505050611701565b155b15611d3e57828181518110611d2857611d2861268b565b602002602001015182611d3b9190612622565b91505b600101611c9d565b506006830154600090611d5a90601a612662565b90506000611d68828461270b565b90506064611d7760328361271f565b611d81919061270b565b979650505050505050565b6040516001600160a01b0383811660248301526044820183905261109e91859182169063a9059cbb90606401611677565b60008181526004602052604081206002810154909190611ddc9061174c565b9050600081836004015481518110611df657611df661268b565b602090810291909101015160078401805461ffff19166004179055600854909150811115611e615760405162461bcd60e51b8152602060048201526018602482015277486f75736520696e73756666696369656e742066756e647360401b604482015260640161075c565b8060086000828254611e739190612662565b90915550508254600254611e94916001600160a01b03918216911683611d8c565b82546040518281526001600160a01b039091169085907ff6ae188cc6336ef5ad970d3c81cda5814b4c4902540924c6924debe94ece13eb9060200160405180910390a350505050565b600082815260046020526040812060068101546060926001611f0083601a612662565b611f0a9190612662565b905084811015611f5c5760405162461bcd60e51b815260206004820152601d60248201527f4e6f7420656e6f75676820626f78657320746f20656c696d696e617465000000604482015260640161075c565b60008167ffffffffffffffff811115611f7757611f77612675565b604051908082528060200260200182016040528015611fa0578160200160208202803683370190505b5090506000805b601a8110156120075785600401548114158015611fce5750611fcc81876006016122f0565b155b15611fff5780838381518110611fe657611fe661268b565b602090810291909101015281611ffb816126a1565b9250505b600101611fa7565b5060008767ffffffffffffffff81111561202357612023612675565b60405190808252806020026020018201604052801561204c578160200160208202803683370190505b5060095460008b815260066020526040808220549051632cdc85e960e21b81526004810191909152929350916001600160a01b039091169063b37217a4906024016020604051808303816000875af11580156120ac573d6000803e3d6000fd5b505050506040513d601f19601f820116820180604052508101906120d091906126ba565b905060005b898110156121fe57604080516020810184905290810182905242606082015244608082015260009060a00160408051601f198184030181529190528051602090910120905060006121268389612662565b6121309083612736565b90508681815181106121445761214461268b565b602002602001015185848151811061215e5761215e61268b565b6020908102919091010152868361217660018b612662565b6121809190612662565b815181106121905761219061268b565b60200260200101518782815181106121aa576121aa61268b565b602002602001018181525050896006018584815181106121cc576121cc61268b565b602090810291909101810151825460018181018555600094855292909320909201919091559290920191506120d59050565b50909998505050505050505050565b6000804244848661221f600143612662565b6040805160208101969096528501939093526bffffffffffffffffffffffff19606092831b1691840191909152607483015240609482015260b40160408051601f19818403018152919052805160209091012090506108db601a82612736565b600080602060008451602086016000885af1806122a2576040513d6000823e3d81fd5b50506000513d915081156122ba5780600114156122c7565b6001600160a01b0384163b155b156116a957604051635274afe760e01b81526001600160a01b038516600482015260240161075c565b8054600090815b8181101561233557848482815481106123125761231261268b565b90600052602060002001540361232d57600192505050611746565b6001016122f7565b506000949350505050565b82805482825590600052602060002090810192821561237b579160200282015b8281111561237b578251825591602001919060010190612360565b506123879291506123f1565b5090565b60405180610120016040528060006001600160a01b03168152602001600081526020016000815260200160008152602001600081526020016000815260200160608152602001600060048111156123e4576123e4612460565b8152600060209091015290565b5b8082111561238757600081556001016123f2565b80356001600160a01b038116811461140857600080fd5b6000806040838503121561243057600080fd5b61243983612406565b946020939093013593505050565b60006020828403121561245957600080fd5b5035919050565b634e487b7160e01b600052602160045260246000fd5b6005811061249457634e487b7160e01b600052602160045260246000fd5b9052565b6001600160a01b03891681526020810188905260408101879052606081018690526080810185905260a0810184905261010081016124d960c0830185612476565b82151560e08301529998505050505050505050565b60006020828403121561250057600080fd5b610ce782612406565b60008151808452602080850194506020840160005b8381101561253a5781518752958201959082019060010161251e565b509495945050505050565b602081526000610ce76020830184612509565b6000806040838503121561256b57600080fd5b50508035926020909101359150565b602081526125946020820183516001600160a01b03169052565b602082015160408201526040820151606082015260608201516080820152608082015160a082015260a082015160c0820152600060c08301516101208060e08501526125e4610140850183612509565b915060e08501516101006125fa81870183612476565b90950151151593019290925250919050565b634e487b7160e01b600052601160045260246000fd5b808201808211156117465761174661260c565b60208082526013908201527211d85b5948191bd95cc81b9bdd08195e1a5cdd606a1b604082015260600190565b818103818111156117465761174661260c565b634e487b7160e01b600052604160045260246000fd5b634e487b7160e01b600052603260045260246000fd5b6000600182016126b3576126b361260c565b5060010190565b6000602082840312156126cc57600080fd5b5051919050565b6040815260006126e66040830185612509565b90508260208301529392505050565b634e487b7160e01b600052601260045260246000fd5b60008261271a5761271a6126f5565b500490565b80820281158282048414176117465761174661260c565b600082612745576127456126f5565b50069056fea26469706673582212207e60d1121817b41c01d6ba35d5f107b2e0489a546ac4392e9b79f4add29f221264736f6c63430008190033",
  "devdoc": {
    "author": "BuidlGuidl",
    "errors": {
      "OwnableInvalidOwner(address)": [
        {
          "details": "The owner is not a valid owner account. (eg. `address(0)`)"
        }
      ],
      "OwnableUnauthorizedAccount(address)": [
        {
          "details": "The caller account is not authorized to perform an operation."
        }
      ],
      "ReentrancyGuardReentrantCall()": [
        {
          "details": "Unauthorized reentrant call."
        }
      ],
      "SafeERC20FailedOperation(address)": [
        {
          "details": "An operation with an ERC-20 token failed."
        }
      ]
    },
    "kind": "dev",
    "methods": {
      "owner()": {
        "details": "Returns the address of the current owner."
      },
      "renounceOwnership()": {
        "details": "Leaves the contract without owner. It will not be possible to call `onlyOwner` functions. Can only be called by the current owner. NOTE: Renouncing ownership will leave the contract without an owner, thereby disabling any functionality that is only available to the owner."
      },
      "transferOwnership(address)": {
        "details": "Transfers ownership of the contract to a new account (`newOwner`). Can only be called by the current owner."
      }
    },
    "version": 1
  },
  "userdoc": {
    "kind": "user",
    "methods": {
      "acceptDeal(uint256)": {
        "notice": "Accept the current deal offer"
      },
      "depositHouseFunds(uint256)": {
        "notice": "Owner deposits funds to house"
      },
      "eliminateBoxes(uint256)": {
        "notice": "Eliminate boxes for the current round (randomly selected) - OPTIMIZED If called when an offer is pending, it implicitly rejects the offer"
      },
      "getGameState(uint256)": {
        "notice": "View functions"
      },
      "startGame(uint256)": {
        "notice": "Start a new game - player deposits tokens and selects their box"
      },
      "withdrawHouseFunds(uint256)": {
        "notice": "Owner withdraws house funds"
      }
    },
    "notice": "A Deal or Not smart contract that allows multiple players to play concurrent games Players deposit tokens to start a game and can win up to 30x their deposit House offers 50% of expected value at the end of each round",
    "version": 1
  },
  "storageLayout": {
    "storage": [
      {
        "astId": 820,
        "contract": "contracts/DealOrNot.sol:DealOrNot",
        "label": "_status",
        "offset": 0,
        "slot": "0",
        "type": "t_uint256"
      },
      {
        "astId": 8,
        "contract": "contracts/DealOrNot.sol:DealOrNot",
        "label": "_owner",
        "offset": 0,
        "slot": "1",
        "type": "t_address"
      },
      {
        "astId": 937,
        "contract": "contracts/DealOrNot.sol:DealOrNot",
        "label": "gameToken",
        "offset": 0,
        "slot": "2",
        "type": "t_contract(IERC20)315"
      },
      {
        "astId": 939,
        "contract": "contracts/DealOrNot.sol:DealOrNot",
        "label": "isMonad",
        "offset": 20,
        "slot": "2",
        "type": "t_bool"
      },
      {
        "astId": 943,
        "contract": "contracts/DealOrNot.sol:DealOrNot",
        "label": "gameIds",
        "offset": 0,
        "slot": "3",
        "type": "t_mapping(t_address,t_uint256)"
      },
      {
        "astId": 948,
        "contract": "contracts/DealOrNot.sol:DealOrNot",
        "label": "games",
        "offset": 0,
        "slot": "4",
        "type": "t_mapping(t_uint256,t_struct(Game)934_storage)"
      },
      {
        "astId": 953,
        "contract": "contracts/DealOrNot.sol:DealOrNot",
        "label": "playerGames",
        "offset": 0,
        "slot": "5",
        "type": "t_mapping(t_address,t_array(t_uint256)dyn_storage)"
      },
      {
        "astId": 957,
        "contract": "contracts/DealOrNot.sol:DealOrNot",
        "label": "requestIds",
        "offset": 0,
        "slot": "6",
        "type": "t_mapping(t_uint256,t_uint256)"
      },
      {
        "astId": 959,
        "contract": "contracts/DealOrNot.sol:DealOrNot",
        "label": "nextGameId",
        "offset": 0,
        "slot": "7",
        "type": "t_uint256"
      },
      {
        "astId": 961,
        "contract": "contracts/DealOrNot.sol:DealOrNot",
        "label": "houseFunds",
        "offset": 0,
        "slot": "8",
        "type": "t_uint256"
      },
      {
        "astId": 970,
        "contract": "contracts/DealOrNot.sol:DealOrNot",
        "label": "vrf",
        "offset": 0,
        "slot": "9",
        "type": "t_contract(IVRF)2466"
      },
      {
        "astId": 980,
        "contract": "contracts/DealOrNot.sol:DealOrNot",
        "label": "roundEliminations",
        "offset": 0,
        "slot": "10",
        "type": "t_array(t_uint256)dyn_storage"
      }
    ],
    "types": {
      "t_address": {
        "encoding": "inplace",
        "label": "address",
        "numberOfBytes": "20"
      },
      "t_array(t_uint256)dyn_storage": {
        "base": "t_uint256",
        "encoding": "dynamic_array",
        "label": "uint256[]",
        "numberOfBytes": "32"
      },
      "t_bool": {
        "encoding": "inplace",
        "label": "bool",
        "numberOfBytes": "1"
      },
      "t_contract(IERC20)315": {
        "encoding": "inplace",
        "label": "contract IERC20",
        "numberOfBytes": "20"
      },
      "t_contract(IVRF)2466": {
        "encoding": "inplace",
        "label": "contract IVRF",
        "numberOfBytes": "20"
      },
      "t_enum(GameState)913": {
        "encoding": "inplace",
        "label": "enum DealOrNot.GameState",
        "numberOfBytes": "1"
      },
      "t_mapping(t_address,t_array(t_uint256)dyn_storage)": {
        "encoding": "mapping",
        "key": "t_address",
        "label": "mapping(address => uint256[])",
        "numberOfBytes": "32",
        "value": "t_array(t_uint256)dyn_storage"
      },
      "t_mapping(t_address,t_uint256)": {
        "encoding": "mapping",
        "key": "t_address",
        "label": "mapping(address => uint256)",
        "numberOfBytes": "32",
        "value": "t_uint256"
      },
      "t_mapping(t_uint256,t_struct(Game)934_storage)": {
        "encoding": "mapping",
        "key": "t_uint256",
        "label": "mapping(uint256 => struct DealOrNot.Game)",
        "numberOfBytes": "32",
        "value": "t_struct(Game)934_storage"
      },
      "t_mapping(t_uint256,t_uint256)": {
        "encoding": "mapping",
        "key": "t_uint256",
        "label": "mapping(uint256 => uint256)",
        "numberOfBytes": "32",
        "value": "t_uint256"
      },
      "t_struct(Game)934_storage": {
        "encoding": "inplace",
        "label": "struct DealOrNot.Game",
        "members": [
          {
            "astId": 915,
            "contract": "contracts/DealOrNot.sol:DealOrNot",
            "label": "player",
            "offset": 0,
            "slot": "0",
            "type": "t_address"
          },
          {
            "astId": 917,
            "contract": "contracts/DealOrNot.sol:DealOrNot",
            "label": "deposit",
            "offset": 0,
            "slot": "1",
            "type": "t_uint256"
          },
          {
            "astId": 919,
            "contract": "contracts/DealOrNot.sol:DealOrNot",
            "label": "entryFee",
            "offset": 0,
            "slot": "2",
            "type": "t_uint256"
          },
          {
            "astId": 921,
            "contract": "contracts/DealOrNot.sol:DealOrNot",
            "label": "gameId",
            "offset": 0,
            "slot": "3",
            "type": "t_uint256"
          },
          {
            "astId": 923,
            "contract": "contracts/DealOrNot.sol:DealOrNot",
            "label": "playerBoxIndex",
            "offset": 0,
            "slot": "4",
            "type": "t_uint256"
          },
          {
            "astId": 925,
            "contract": "contracts/DealOrNot.sol:DealOrNot",
            "label": "currentRound",
            "offset": 0,
            "slot": "5",
            "type": "t_uint256"
          },
          {
            "astId": 928,
            "contract": "contracts/DealOrNot.sol:DealOrNot",
            "label": "eliminatedBoxes",
            "offset": 0,
            "slot": "6",
            "type": "t_array(t_uint256)dyn_storage"
          },
          {
            "astId": 931,
            "contract": "contracts/DealOrNot.sol:DealOrNot",
            "label": "state",
            "offset": 0,
            "slot": "7",
            "type": "t_enum(GameState)913"
          },
          {
            "astId": 933,
            "contract": "contracts/DealOrNot.sol:DealOrNot",
            "label": "isActive",
            "offset": 1,
            "slot": "7",
            "type": "t_bool"
          }
        ],
        "numberOfBytes": "256"
      },
      "t_uint256": {
        "encoding": "inplace",
        "label": "uint256",
        "numberOfBytes": "32"
      }
    }
  }
}