{
  "address": "0x61feF763c03Cc559Dd194380abdA5795dfc27a24",
  "abi": [
    {
      "inputs": [
        {
          "internalType": "address",
          "name": "_owner",
          "type": "address"
        },
        {
          "internalType": "address",
          "name": "_vrf",
          "type": "address"
        },
        {
          "internalType": "bool",
          "name": "_isMonad",
          "type": "bool"
        },
        {
          "internalType": "address",
          "name": "_gameToken",
          "type": "address"
        }
      ],
      "stateMutability": "nonpayable",
      "type": "constructor"
    },
    {
      "inputs": [
        {
          "internalType": "address",
          "name": "owner",
          "type": "address"
        }
      ],
      "name": "OwnableInvalidOwner",
      "type": "error"
    },
    {
      "inputs": [
        {
          "internalType": "address",
          "name": "account",
          "type": "address"
        }
      ],
      "name": "OwnableUnauthorizedAccount",
      "type": "error"
    },
    {
      "inputs": [],
      "name": "ReentrancyGuardReentrantCall",
      "type": "error"
    },
    {
      "inputs": [
        {
          "internalType": "address",
          "name": "token",
          "type": "address"
        }
      ],
      "name": "SafeERC20FailedOperation",
      "type": "error"
    },
    {
      "anonymous": false,
      "inputs": [
        {
          "indexed": true,
          "internalType": "uint256",
          "name": "gameId",
          "type": "uint256"
        },
        {
          "indexed": false,
          "internalType": "uint256[]",
          "name": "eliminatedBoxes",
          "type": "uint256[]"
        },
        {
          "indexed": false,
          "internalType": "uint256",
          "name": "round",
          "type": "uint256"
        }
      ],
      "name": "BoxesEliminated",
      "type": "event"
    },
    {
      "anonymous": false,
      "inputs": [
        {
          "indexed": true,
          "internalType": "uint256",
          "name": "gameId",
          "type": "uint256"
        },
        {
          "indexed": true,
          "internalType": "address",
          "name": "player",
          "type": "address"
        },
        {
          "indexed": false,
          "internalType": "uint256",
          "name": "payout",
          "type": "uint256"
        }
      ],
      "name": "DealAccepted",
      "type": "event"
    },
    {
      "anonymous": false,
      "inputs": [
        {
          "indexed": true,
          "internalType": "uint256",
          "name": "gameId",
          "type": "uint256"
        },
        {
          "indexed": false,
          "internalType": "uint256",
          "name": "round",
          "type": "uint256"
        }
      ],
      "name": "DealRejected",
      "type": "event"
    },
    {
      "anonymous": false,
      "inputs": [
        {
          "indexed": true,
          "internalType": "uint256",
          "name": "gameId",
          "type": "uint256"
        },
        {
          "indexed": true,
          "internalType": "address",
          "name": "player",
          "type": "address"
        },
        {
          "indexed": false,
          "internalType": "uint256",
          "name": "finalPayout",
          "type": "uint256"
        }
      ],
      "name": "GameCompleted",
      "type": "event"
    },
    {
      "anonymous": false,
      "inputs": [
        {
          "indexed": true,
          "internalType": "uint256",
          "name": "gameId",
          "type": "uint256"
        },
        {
          "indexed": true,
          "internalType": "address",
          "name": "player",
          "type": "address"
        },
        {
          "indexed": false,
          "internalType": "uint256",
          "name": "playerBox",
          "type": "uint256"
        }
      ],
      "name": "GameStarted",
      "type": "event"
    },
    {
      "anonymous": false,
      "inputs": [
        {
          "indexed": false,
          "internalType": "uint256",
          "name": "amount",
          "type": "uint256"
        }
      ],
      "name": "HouseFundsDeposited",
      "type": "event"
    },
    {
      "anonymous": false,
      "inputs": [
        {
          "indexed": false,
          "internalType": "uint256",
          "name": "amount",
          "type": "uint256"
        }
      ],
      "name": "HouseFundsWithdrawn",
      "type": "event"
    },
    {
      "anonymous": false,
      "inputs": [
        {
          "indexed": true,
          "internalType": "address",
          "name": "previousOwner",
          "type": "address"
        },
        {
          "indexed": true,
          "internalType": "address",
          "name": "newOwner",
          "type": "address"
        }
      ],
      "name": "OwnershipTransferred",
      "type": "event"
    },
    {
      "inputs": [],
      "name": "HOUSE_OFFER_PERCENTAGE",
      "outputs": [
        {
          "internalType": "uint256",
          "name": "",
          "type": "uint256"
        }
      ],
      "stateMutability": "view",
      "type": "function"
    },
    {
      "inputs": [],
      "name": "TOTAL_BOXES",
      "outputs": [
        {
          "internalType": "uint256",
          "name": "",
          "type": "uint256"
        }
      ],
      "stateMutability": "view",
      "type": "function"
    },
    {
      "inputs": [
        {
          "internalType": "uint256",
          "name": "gameId",
          "type": "uint256"
        }
      ],
      "name": "acceptDeal",
      "outputs": [],
      "stateMutability": "nonpayable",
      "type": "function"
    },
    {
      "inputs": [
        {
          "internalType": "uint256",
          "name": "amount",
          "type": "uint256"
        }
      ],
      "name": "depositHouseFunds",
      "outputs": [],
      "stateMutability": "nonpayable",
      "type": "function"
    },
    {
      "inputs": [
        {
          "internalType": "uint256",
          "name": "gameId",
          "type": "uint256"
        }
      ],
      "name": "eliminateBoxes",
      "outputs": [],
      "stateMutability": "payable",
      "type": "function"
    },
    {
      "inputs": [
        {
          "internalType": "address",
          "name": "",
          "type": "address"
        }
      ],
      "name": "gameIds",
      "outputs": [
        {
          "internalType": "uint256",
          "name": "",
          "type": "uint256"
        }
      ],
      "stateMutability": "view",
      "type": "function"
    },
    {
      "inputs": [],
      "name": "gameToken",
      "outputs": [
        {
          "internalType": "contract IERC20",
          "name": "",
          "type": "address"
        }
      ],
      "stateMutability": "view",
      "type": "function"
    },
    {
      "inputs": [
        {
          "internalType": "uint256",
          "name": "",
          "type": "uint256"
        }
      ],
      "name": "games",
      "outputs": [
        {
          "internalType": "address",
          "name": "player",
          "type": "address"
        },
        {
          "internalType": "uint256",
          "name": "entryFee",
          "type": "uint256"
        },
        {
          "internalType": "uint256",
          "name": "gameId",
          "type": "uint256"
        },
        {
          "internalType": "uint256",
          "name": "playerBoxIndex",
          "type": "uint256"
        },
        {
          "internalType": "uint256",
          "name": "currentRound",
          "type": "uint256"
        },
        {
          "internalType": "enum DealOrNot.GameState",
          "name": "state",
          "type": "uint8"
        },
        {
          "internalType": "bool",
          "name": "isActive",
          "type": "bool"
        }
      ],
      "stateMutability": "view",
      "type": "function"
    },
    {
      "inputs": [
        {
          "internalType": "uint256",
          "name": "gameId",
          "type": "uint256"
        },
        {
          "internalType": "uint256",
          "name": "boxIndex",
          "type": "uint256"
        }
      ],
      "name": "getBoxValue",
      "outputs": [
        {
          "internalType": "uint256",
          "name": "",
          "type": "uint256"
        }
      ],
      "stateMutability": "view",
      "type": "function"
    },
    {
      "inputs": [
        {
          "internalType": "uint256",
          "name": "gameId",
          "type": "uint256"
        }
      ],
      "name": "getCurrentOffer",
      "outputs": [
        {
          "internalType": "uint256",
          "name": "",
          "type": "uint256"
        }
      ],
      "stateMutability": "view",
      "type": "function"
    },
    {
      "inputs": [
        {
          "internalType": "uint256",
          "name": "gameId",
          "type": "uint256"
        }
      ],
      "name": "getEliminatedBoxes",
      "outputs": [
        {
          "internalType": "uint256[]",
          "name": "",
          "type": "uint256[]"
        }
      ],
      "stateMutability": "view",
      "type": "function"
    },
    {
      "inputs": [
        {
          "internalType": "uint256",
          "name": "gameId",
          "type": "uint256"
        }
      ],
      "name": "getGameState",
      "outputs": [
        {
          "components": [
            {
              "internalType": "address",
              "name": "player",
              "type": "address"
            },
            {
              "internalType": "uint256",
              "name": "entryFee",
              "type": "uint256"
            },
            {
              "internalType": "uint256",
              "name": "gameId",
              "type": "uint256"
            },
            {
              "internalType": "uint256",
              "name": "playerBoxIndex",
              "type": "uint256"
            },
            {
              "internalType": "uint256",
              "name": "currentRound",
              "type": "uint256"
            },
            {
              "internalType": "uint256[]",
              "name": "eliminatedBoxes",
              "type": "uint256[]"
            },
            {
              "internalType": "enum DealOrNot.GameState",
              "name": "state",
              "type": "uint8"
            },
            {
              "internalType": "bool",
              "name": "isActive",
              "type": "bool"
            }
          ],
          "internalType": "struct DealOrNot.Game",
          "name": "",
          "type": "tuple"
        }
      ],
      "stateMutability": "view",
      "type": "function"
    },
    {
      "inputs": [],
      "name": "getHouseFunds",
      "outputs": [
        {
          "internalType": "uint256",
          "name": "",
          "type": "uint256"
        }
      ],
      "stateMutability": "view",
      "type": "function"
    },
    {
      "inputs": [
        {
          "internalType": "address",
          "name": "player",
          "type": "address"
        }
      ],
      "name": "getPlayerGames",
      "outputs": [
        {
          "internalType": "uint256[]",
          "name": "",
          "type": "uint256[]"
        }
      ],
      "stateMutability": "view",
      "type": "function"
    },
    {
      "inputs": [
        {
          "internalType": "uint256",
          "name": "gameId",
          "type": "uint256"
        }
      ],
      "name": "getPrizePool",
      "outputs": [
        {
          "internalType": "uint256[]",
          "name": "",
          "type": "uint256[]"
        }
      ],
      "stateMutability": "view",
      "type": "function"
    },
    {
      "inputs": [
        {
          "internalType": "uint256",
          "name": "gameId",
          "type": "uint256"
        }
      ],
      "name": "getRemainingBoxes",
      "outputs": [
        {
          "internalType": "uint256[]",
          "name": "",
          "type": "uint256[]"
        }
      ],
      "stateMutability": "view",
      "type": "function"
    },
    {
      "inputs": [],
      "name": "getTotalGames",
      "outputs": [
        {
          "internalType": "uint256",
          "name": "",
          "type": "uint256"
        }
      ],
      "stateMutability": "view",
      "type": "function"
    },
    {
      "inputs": [],
      "name": "houseFunds",
      "outputs": [
        {
          "internalType": "uint256",
          "name": "",
          "type": "uint256"
        }
      ],
      "stateMutability": "view",
      "type": "function"
    },
    {
      "inputs": [],
      "name": "isMonad",
      "outputs": [
        {
          "internalType": "bool",
          "name": "",
          "type": "bool"
        }
      ],
      "stateMutability": "view",
      "type": "function"
    },
    {
      "inputs": [],
      "name": "nextGameId",
      "outputs": [
        {
          "internalType": "uint256",
          "name": "",
          "type": "uint256"
        }
      ],
      "stateMutability": "view",
      "type": "function"
    },
    {
      "inputs": [],
      "name": "owner",
      "outputs": [
        {
          "internalType": "address",
          "name": "",
          "type": "address"
        }
      ],
      "stateMutability": "view",
      "type": "function"
    },
    {
      "inputs": [
        {
          "internalType": "address",
          "name": "",
          "type": "address"
        },
        {
          "internalType": "uint256",
          "name": "",
          "type": "uint256"
        }
      ],
      "name": "playerGames",
      "outputs": [
        {
          "internalType": "uint256",
          "name": "",
          "type": "uint256"
        }
      ],
      "stateMutability": "view",
      "type": "function"
    },
    {
      "inputs": [],
      "name": "renounceOwnership",
      "outputs": [],
      "stateMutability": "nonpayable",
      "type": "function"
    },
    {
      "inputs": [
        {
          "internalType": "uint256",
          "name": "",
          "type": "uint256"
        }
      ],
      "name": "requestIds",
      "outputs": [
        {
          "internalType": "uint256",
          "name": "",
          "type": "uint256"
        }
      ],
      "stateMutability": "view",
      "type": "function"
    },
    {
      "inputs": [
        {
          "internalType": "uint256",
          "name": "",
          "type": "uint256"
        }
      ],
      "name": "roundEliminations",
      "outputs": [
        {
          "internalType": "uint256",
          "name": "",
          "type": "uint256"
        }
      ],
      "stateMutability": "view",
      "type": "function"
    },
    {
      "inputs": [
        {
          "internalType": "uint256",
          "name": "entryFee",
          "type": "uint256"
        }
      ],
      "name": "startGame",
      "outputs": [
        {
          "internalType": "uint256",
          "name": "",
          "type": "uint256"
        }
      ],
      "stateMutability": "payable",
      "type": "function"
    },
    {
      "inputs": [
        {
          "internalType": "address",
          "name": "newOwner",
          "type": "address"
        }
      ],
      "name": "transferOwnership",
      "outputs": [],
      "stateMutability": "nonpayable",
      "type": "function"
    },
    {
      "inputs": [],
      "name": "vrf",
      "outputs": [
        {
          "internalType": "contract IVRF",
          "name": "",
          "type": "address"
        }
      ],
      "stateMutability": "view",
      "type": "function"
    },
    {
      "inputs": [
        {
          "internalType": "uint256",
          "name": "amount",
          "type": "uint256"
        }
      ],
      "name": "withdrawHouseFunds",
      "outputs": [],
      "stateMutability": "nonpayable",
      "type": "function"
    },
    {
      "stateMutability": "payable",
      "type": "receive"
    }
  ],
  "transactionHash": "0xdf907e37e392a19643e3ea710012395307b63cfe47d8fb485df549e765345c19",
  "args": [
    "0x654B45fAdB36731BBB81571B649Ccd7E6a8c2CEF",
    "0x126a323267dA7C30e48C13743efd9979ebe6E205",
    true,
    "0xaEef2f6B429Cb59C9B2D7bB2141ADa993E8571c3"
  ],
  "numDeployments": 8,
  "solcInputHash": "e51166b5e03bcf69177913776c5f1d8c",
  "bytecode": "0x61014060405260066080818152600560a052600460c052600360e05260026101005260016101205261003491600a9190610198565b5034801561004157600080fd5b50604051612a33380380612a3383398101604081905261006091610219565b6001600055836001600160a01b03811661009557604051631e4fbdf760e01b8152600060048201526024015b60405180910390fd5b61009e81610146565b506001600160a01b0381166100ff5760405162461bcd60e51b815260206004820152602160248201527f47616d6520746f6b656e2063616e6e6f74206265207a65726f206164647265736044820152607360f81b606482015260840161008c565b600980546001600160a01b039485166001600160a01b0319918216179091556002805492909416921515600160a01b02166001600160a81b03199091161717905550610274565b600180546001600160a01b038381166001600160a01b0319831681179093556040519116919082907f8be0079c531659141344cd1fd0a4f28419497f9722a3daafe3b4186f6b6457e090600090a35050565b8280548282559060005260206000209081019282156101d8579160200282015b828111156101d8578251829060ff169055916020019190600101906101b8565b506101e49291506101e8565b5090565b5b808211156101e457600081556001016101e9565b80516001600160a01b038116811461021457600080fd5b919050565b6000806000806080858703121561022f57600080fd5b610238856101fd565b9350610246602086016101fd565b92506040850151801515811461025b57600080fd5b9150610269606086016101fd565b905092959194509250565b6127b0806102836000396000f3fe6080604052600436106101c65760003560e01c80637e0d29f7116100f7578063c3dfdae611610095578063e5ed1d5911610064578063e5ed1d5914610556578063f2fde38b14610569578063fbcfd2bb14610589578063ffde0c74146105a957600080fd5b8063c3dfdae6146104f9578063d47a879c14610519578063d65eba341461052c578063dd4823bf1461054157600080fd5b80638914d7f3116100d15780638914d7f3146104855780638da5cb5b146104a5578063abfd4cf9146104c3578063b135bbb0146104e357600080fd5b80637e0d29f7146104115780638535f86e146104275780638796ba8c1461045857600080fd5b8063655796ce11610164578063739480351161013e57806373948035146103915780637822be4a146103b15780637d41702e146103d15780637d59441a146103f157600080fd5b8063655796ce1461032f578063665a9e5f1461034f578063715018a61461037c57600080fd5b8063129daf84116101a0578063129daf84146102b6578063373692dc146102e35780633dc87443146102f85780635bd4349b1461031a57600080fd5b80630a5694c2146101d25780630c94904314610205578063117a5b901461023d57600080fd5b366101cd57005b600080fd5b3480156101de57600080fd5b506101f26101ed36600461243a565b6105d6565b6040519081526020015b60405180910390f35b34801561021157600080fd5b50600954610225906001600160a01b031681565b6040516001600160a01b0390911681526020016101fc565b34801561024957600080fd5b506102a3610258366004612464565b60046020819052600091825260409091208054600182015460028301546003840154948401546006909401546001600160a01b03909316949193909260ff8082169161010090041687565b6040516101fc97969594939291906124b5565b3480156102c257600080fd5b506102d66102d1366004612502565b610607565b6040516101fc9190612559565b3480156102ef57600080fd5b506101f2601a81565b34801561030457600080fd5b50610318610313366004612464565b610673565b005b34801561032657600080fd5b506007546101f2565b34801561033b57600080fd5b506101f261034a366004612464565b6106e0565b34801561035b57600080fd5b506101f261036a366004612502565b60036020526000908152604090205481565b34801561038857600080fd5b50610318610701565b34801561039d57600080fd5b506102d66103ac366004612464565b610715565b3480156103bd57600080fd5b506102d66103cc366004612464565b610878565b3480156103dd57600080fd5b506103186103ec366004612464565b6108c0565b3480156103fd57600080fd5b5061031861040c366004612464565b610b00565b34801561041d57600080fd5b506101f260085481565b34801561043357600080fd5b5060025461044890600160a01b900460ff1681565b60405190151581526020016101fc565b34801561046457600080fd5b506101f2610473366004612464565b60066020526000908152604090205481565b34801561049157600080fd5b506101f26104a0366004612464565b610c97565b3480156104b157600080fd5b506001546001600160a01b0316610225565b3480156104cf57600080fd5b506102d66104de366004612464565b610ccb565b3480156104ef57600080fd5b506101f260075481565b34801561050557600080fd5b50600254610225906001600160a01b031681565b610318610527366004612464565b610d53565b34801561053857600080fd5b506101f2603281565b34801561054d57600080fd5b506008546101f2565b6101f2610564366004612464565b611094565b34801561057557600080fd5b50610318610584366004612502565b611407565b34801561059557600080fd5b506101f26105a436600461256c565b611442565b3480156105b557600080fd5b506105c96105c4366004612464565b6114e9565b6040516101fc919061258e565b600560205281600052604060002081815481106105f257600080fd5b90600052602060002001600091509150505481565b6001600160a01b03811660009081526005602090815260409182902080548351818402810184019094528084526060939283018282801561066757602002820191906000526020600020905b815481526020019060010190808311610653575b50505050509050919050565b61067b611605565b600254610693906001600160a01b0316333084611632565b80600860008282546106a59190612652565b90915550506040518181527f698c6b09e77d6ec12d764617264649ec58ae335c4a80b921d92ee2e44cd2dc559060200160405180910390a150565b600a81815481106106f057600080fd5b600091825260209091200154905081565b610709611605565b610713600061169f565b565b60608160075481106107425760405162461bcd60e51b815260040161073990612665565b60405180910390fd5b6000838152600460205260408120600581015490919060019061076690601a612692565b6107709190612692565b905060008167ffffffffffffffff81111561078d5761078d6126a5565b6040519080825280602002602001820160405280156107b6578160200160208202803683370190505b5090506000805b601a81101561086c57846003015481141580156108335750610831818660050180548060200260200160405190810160405280929190818152602001828054801561082757602002820191906000526020600020905b815481526020019060010190808311610813575b50505050506116f1565b155b15610864578083838151811061084b5761084b6126bb565b602090810291909101015281610860816126d1565b9250505b6001016107bd565b50909695505050505050565b606081600754811061089c5760405162461bcd60e51b815260040161073990612665565b600083815260046020526040902060018101546108b89061173c565b949350505050565b8060075481106108e25760405162461bcd60e51b815260040161073990612665565b60008281526004602052604090205482906001600160a01b0316331461093a5760405162461bcd60e51b815260206004820152600d60248201526c4e6f7420796f75722067616d6560981b6044820152606401610739565b8260028060008381526004602081905260409091206006015460ff16908111156109665761096661247d565b146109a85760405162461bcd60e51b8152602060048201526012602482015271496e76616c69642067616d6520737461746560701b6044820152606401610739565b6109b0611c13565b6109b985611c3d565b806008541015610a065760405162461bcd60e51b8152602060048201526018602482015277486f75736520696e73756666696369656e742066756e647360401b6044820152606401610739565b600086815260046020526040812090610a1e88611c3d565b60068301805461ffff19166003179055600880549192508291600090610a45908490612692565b90915550508154600254610a66916001600160a01b03918216911683611d7c565b81546040518281526001600160a01b039091169089907f4040b057894dad8489aa292521553397cd14fa0e341f6e6c9b646f78154efd1c9060200160405180910390a381546040518281526001600160a01b039091169089907ff6ae188cc6336ef5ad970d3c81cda5814b4c4902540924c6924debe94ece13eb9060200160405180910390a3505050610af96001600055565b5050505050565b610b08611605565b610b10611c13565b600854811115610b625760405162461bcd60e51b815260206004820152601860248201527f496e73756666696369656e7420686f7573652066756e647300000000000000006044820152606401610739565b6002546040516370a0823160e01b81523060048201526001600160a01b03909116906370a0823190602401602060405180830381865afa158015610baa573d6000803e3d6000fd5b505050506040513d601f19601f82011682018060405250810190610bce91906126ea565b811115610c1d5760405162461bcd60e51b815260206004820152601d60248201527f496e73756666696369656e7420636f6e74726163742062616c616e63650000006044820152606401610739565b8060086000828254610c2f9190612692565b9091555050600154610c57906001600160a01b03166002546001600160a01b03169083611d7c565b6040518181527fe474834969d675e228bf44a31064bc4f07a62bf4073d488e004ff38078575acf9060200160405180910390a1610c946001600055565b50565b6000816007548110610cbb5760405162461bcd60e51b815260040161073990612665565b610cc483611c3d565b9392505050565b6060816007548110610cef5760405162461bcd60e51b815260040161073990612665565b60008381526004602090815260409182902060050180548351818402810184019094528084529091830182828015610d4657602002820191906000526020600020905b815481526020019060010190808311610d32575b5050505050915050919050565b806007548110610d755760405162461bcd60e51b815260040161073990612665565b60008281526004602052604090205482906001600160a01b03163314610dcd5760405162461bcd60e51b815260206004820152600d60248201526c4e6f7420796f75722067616d6560981b6044820152606401610739565b610dd5611c13565b60008381526004602052604090206001600682015460ff166004811115610dfe57610dfe61247d565b1480610e2257506002600682015460ff166004811115610e2057610e2061247d565b145b610e635760405162461bcd60e51b8152602060048201526012602482015271496e76616c69642067616d6520737461746560701b6044820152606401610739565b6002600682015460ff166004811115610e7e57610e7e61247d565b03610ec257837f084c4e8dbed002b0fe4ec01207ee9d6c85c1b98a93cfad7a51407dd25f5a14288260040154604051610eb991815260200190565b60405180910390a25b600a54600482015410610ede57610ed884611dad565b50611085565b6000600a826004015481548110610ef757610ef76126bb565b906000526020600020015490506000610f108683611ecd565b6004840180549192506000610f24836126d1565b909155505060068301805460ff19166002179055600483015460405187917fdc5195a0a717d87adda811cfdff4a54ca7bcb612e76854d81b13c20612b6fe5791610f6f918591612703565b60405180910390a260095460408051632d971e6360e01b815290516000926001600160a01b031691632d971e639160048083019260209291908290030181865afa158015610fc1573d6000803e3d6000fd5b505050506040513d601f19601f82011682018060405250810190610fe591906126ea565b90506000610ff8883387600401546121e8565b6009546040516317a627af60e31b8152600481018390529192506000916001600160a01b039091169063bd313d7890859060240160206040518083038185885af115801561104a573d6000803e3d6000fd5b50505050506040513d601f19601f8201168201806040525081019061106f91906126ea565b60008a8152600660205260409020555050505050505b61108f6001600055565b505050565b600061109e611c13565b600082116110fa5760405162461bcd60e51b815260206004820152602360248201527f456e74727920666565206d7573742062652067726561746572207468616e207a60448201526265726f60e81b6064820152608401610739565b600254611112906001600160a01b0316333085611632565b6007805460009182611123836126d1565b91905055905060006111358233612231565b9050604051806101000160405280336001600160a01b0316815260200185815260200183815260200182815260200160008152602001600067ffffffffffffffff811115611185576111856126a5565b6040519080825280602002602001820160405280156111ae578160200160208202803683370190505b508152602001600181526001602091820181905260008581526004808452604091829020855181546001600160a01b0319166001600160a01b0390911617815585850151938101939093559084015160028301556060840151600383015560808401519082015560a08301518051919261123092600585019290910190612364565b5060c082015160068201805460ff191660018360048111156112545761125461247d565b021790555060e09190910151600690910180549115156101000261ff0019909216919091179055336000818152600560209081526040808320805460018101825590845282842001869055928252600381528282208590556009548351632d971e6360e01b8152935192936001600160a01b039190911692632d971e63926004808401939192918290030181865afa1580156112f4573d6000803e3d6000fd5b505050506040513d601f19601f8201168201806040525081019061131891906126ea565b90506000611328843360006121e8565b6009546040516317a627af60e31b8152600481018390529192506000916001600160a01b039091169063bd313d7890859060240160206040518083038185885af115801561137a573d6000803e3d6000fd5b50505050506040513d601f19601f8201168201806040525081019061139f91906126ea565b6000868152600660205260409081902082905551909150339086907f0c82908456d66c43e9de63edd66f9faf875c8f3a12f936e162d675ec42c35444906113e99088815260200190565b60405180910390a3509293505050506114026001600055565b919050565b61140f611605565b6001600160a01b03811661143957604051631e4fbdf760e01b815260006004820152602401610739565b610c948161169f565b60008260075481106114665760405162461bcd60e51b815260040161073990612665565b601a83106114aa5760405162461bcd60e51b8152602060048201526011602482015270092dcecc2d8d2c840c4def040d2dcc8caf607b1b6044820152606401610739565b600084815260046020526040902060018101546114c69061173c565b84815181106114d7576114d76126bb565b60200260200101519250505092915050565b6114f16123af565b8160075481106115135760405162461bcd60e51b815260040161073990612665565b60008381526004602081815260409283902083516101008101855281546001600160a01b03168152600182015481840152600282015481860152600382015460608201529281015460808401526005810180548551818502810185019096528086529394919360a08601938301828280156115ad57602002820191906000526020600020905b815481526020019060010190808311611599575b5050509183525050600682015460209091019060ff1660048111156115d4576115d461247d565b60048111156115e5576115e561247d565b815260069190910154610100900460ff1615156020909101529392505050565b6001546001600160a01b031633146107135760405163118cdaa760e01b8152336004820152602401610739565b6040516001600160a01b0384811660248301528381166044830152606482018390526116999186918216906323b872dd906084015b604051602081830303815290604052915060e01b6020820180516001600160e01b0383818316178352505050506122a3565b50505050565b600180546001600160a01b038381166001600160a01b0319831681179093556040519116919082907f8be0079c531659141344cd1fd0a4f28419497f9722a3daafe3b4186f6b6457e090600090a35050565b6000805b82518110156117305783838281518110611711576117116126bb565b602002602001015103611728576001915050611736565b6001016116f5565b50600090505b92915050565b60408051601a80825261036082019092526060916000919060208201610340803683370190505090506117716127108461273b565b81600081518110611784576117846126bb565b602090810291909101015261179b6103e88461273b565b816001815181106117ae576117ae6126bb565b60209081029190910101526117c460c88461273b565b816002815181106117d7576117d76126bb565b60209081029190910101526117ed60648461273b565b81600381518110611800576118006126bb565b602090810291909101015261181660288461273b565b81600481518110611829576118296126bb565b602090810291909101015261183f60148461273b565b81600581518110611852576118526126bb565b60209081029190910101526103e861186b84604b61274f565b611875919061273b565b81600681518110611888576118886126bb565b602090810291909101015261189e600a8461273b565b816007815181106118b1576118b16126bb565b60209081029190910101526118c760058461273b565b816008815181106118da576118da6126bb565b6020908102919091010152600a6118f284600361274f565b6118fc919061273b565b8160098151811061190f5761190f6126bb565b6020908102919091010152600561192784600261274f565b611931919061273b565b81600a81518110611944576119446126bb565b602090810291909101015261195a60028461273b565b81600b8151811061196d5761196d6126bb565b6020908102919091010152600461198584600361274f565b61198f919061273b565b81600c815181106119a2576119a26126bb565b6020026020010181815250508281600d815181106119c2576119c26126bb565b602090810291909101015260026119da84600361274f565b6119e4919061273b565b81600e815181106119f7576119f76126bb565b6020908102919091010152611a0d83600261274f565b81600f81518110611a2057611a206126bb565b60209081029190910101526002611a3884600561274f565b611a42919061273b565b81601081518110611a5557611a556126bb565b6020908102919091010152611a6b83600361274f565b81601181518110611a7e57611a7e6126bb565b60209081029190910101526002611a9684600761274f565b611aa0919061273b565b81601281518110611ab357611ab36126bb565b60209081029190910101526004611acb84600f61274f565b611ad5919061273b565b81601381518110611ae857611ae86126bb565b6020908102919091010152611afe83600461274f565b81601481518110611b1157611b116126bb565b60209081029190910101526004611b2984601161274f565b611b33919061273b565b81601581518110611b4657611b466126bb565b60209081029190910101526002611b5e84600961274f565b611b68919061273b565b81601681518110611b7b57611b7b6126bb565b6020908102919091010152611b9183600561274f565b81601781518110611ba457611ba46126bb565b60209081029190910101526002611bbc84600f61274f565b611bc6919061273b565b81601881518110611bd957611bd96126bb565b6020908102919091010152611bef83600a61274f565b81601981518110611c0257611c026126bb565b602090810291909101015292915050565b600260005403611c3657604051633ee5aeb560e01b815260040160405180910390fd5b6002600055565b600081815260046020526040812060018101548290611c5b9061173c565b9050600081836003015481518110611c7557611c756126bb565b602002602001015181611c889190612652565b905060005b601a811015611d365783600301548114158015611d015750611cff818560050180548060200260200160405190810160405280929190818152602001828054801561082757602002820191906000526020600020908154815260200190600101908083116108135750505050506116f1565b155b15611d2e57828181518110611d1857611d186126bb565b602002602001015182611d2b9190612652565b91505b600101611c8d565b506005830154600090611d4a90601a612692565b90506000611d58828461273b565b90506064611d6760328361274f565b611d71919061273b565b979650505050505050565b6040516001600160a01b0383811660248301526044820183905261108f91859182169063a9059cbb90606401611667565b60008181526004602052604081206001810154909190611dcc9061173c565b9050600081836003015481518110611de657611de66126bb565b602090810291909101015160068401805461ffff19166004179055600854909150811115611e515760405162461bcd60e51b8152602060048201526018602482015277486f75736520696e73756666696369656e742066756e647360401b6044820152606401610739565b8060086000828254611e639190612692565b90915550508254600254611e84916001600160a01b03918216911683611d7c565b82546040518281526001600160a01b039091169085907ff6ae188cc6336ef5ad970d3c81cda5814b4c4902540924c6924debe94ece13eb9060200160405180910390a350505050565b600082815260046020526040812060058101546060926001611ef083601a612692565b611efa9190612692565b905084811015611f4c5760405162461bcd60e51b815260206004820152601d60248201527f4e6f7420656e6f75676820626f78657320746f20656c696d696e6174650000006044820152606401610739565b60008167ffffffffffffffff811115611f6757611f676126a5565b604051908082528060200260200182016040528015611f90578160200160208202803683370190505b5090506000805b601a811015611ff75785600301548114158015611fbe5750611fbc8187600501612314565b155b15611fef5780838381518110611fd657611fd66126bb565b602090810291909101015281611feb816126d1565b9250505b600101611f97565b5060008767ffffffffffffffff811115612013576120136126a5565b60405190808252806020026020018201604052801561203c578160200160208202803683370190505b5060095460008b815260066020526040808220549051632cdc85e960e21b81526004810191909152929350916001600160a01b039091169063b37217a4906024016020604051808303816000875af115801561209c573d6000803e3d6000fd5b505050506040513d601f19601f820116820180604052508101906120c091906126ea565b905060005b898110156121d9576040805160208082018590528183018490528251808303840181526060909201909252805191012060006121018389612692565b61210b9083612766565b905086818151811061211f5761211f6126bb565b6020026020010151858481518110612139576121396126bb565b6020908102919091010152868361215160018b612692565b61215b9190612692565b8151811061216b5761216b6126bb565b6020026020010151878281518110612185576121856126bb565b602002602001018181525050896005018584815181106121a7576121a76126bb565b602090810291909101810151825460018181018555600094855292909320909201919091559290920191506120c59050565b50909998505050505050505050565b6040805160208082019590955260609390931b6bffffffffffffffffffffffff191683820152605480840192909252805180840390920182526074909201909152805191012090565b60008042448486612243600143612692565b6040805160208101969096528501939093526bffffffffffffffffffffffff19606092831b1691840191909152607483015240609482015260b40160408051601f19818403018152919052805160209091012090506108b8601a82612766565b600080602060008451602086016000885af1806122c6576040513d6000823e3d81fd5b50506000513d915081156122de5780600114156122eb565b6001600160a01b0384163b155b1561169957604051635274afe760e01b81526001600160a01b0385166004820152602401610739565b8054600090815b818110156123595784848281548110612336576123366126bb565b90600052602060002001540361235157600192505050611736565b60010161231b565b506000949350505050565b82805482825590600052602060002090810192821561239f579160200282015b8281111561239f578251825591602001919060010190612384565b506123ab92915061240e565b5090565b60405180610100016040528060006001600160a01b031681526020016000815260200160008152602001600081526020016000815260200160608152602001600060048111156124015761240161247d565b8152600060209091015290565b5b808211156123ab576000815560010161240f565b80356001600160a01b038116811461140257600080fd5b6000806040838503121561244d57600080fd5b61245683612423565b946020939093013593505050565b60006020828403121561247657600080fd5b5035919050565b634e487b7160e01b600052602160045260246000fd5b600581106124b157634e487b7160e01b600052602160045260246000fd5b9052565b6001600160a01b03881681526020810187905260408101869052606081018590526080810184905260e081016124ee60a0830185612493565b82151560c083015298975050505050505050565b60006020828403121561251457600080fd5b610cc482612423565b60008151808452602080850194506020840160005b8381101561254e57815187529582019590820190600101612532565b509495945050505050565b602081526000610cc4602083018461251d565b6000806040838503121561257f57600080fd5b50508035926020909101359150565b60006020808352610120830160018060a01b03855116828501528185015160408501526040850151606085015260608501516080850152608085015160a085015260a08501516101008060c0870152828251808552610140880191508584019450600093505b8084101561261457845182529385019360019390930192908501906125f4565b5060c0880151945061262960e0880186612493565b60e0880151801515888401529450611d71565b634e487b7160e01b600052601160045260246000fd5b808201808211156117365761173661263c565b60208082526013908201527211d85b5948191bd95cc81b9bdd08195e1a5cdd606a1b604082015260600190565b818103818111156117365761173661263c565b634e487b7160e01b600052604160045260246000fd5b634e487b7160e01b600052603260045260246000fd5b6000600182016126e3576126e361263c565b5060010190565b6000602082840312156126fc57600080fd5b5051919050565b604081526000612716604083018561251d565b90508260208301529392505050565b634e487b7160e01b600052601260045260246000fd5b60008261274a5761274a612725565b500490565b80820281158282048414176117365761173661263c565b60008261277557612775612725565b50069056fea2646970667358221220508061341d8447640a36216008cfdb40d32ce1ce7a50f6cff081510e869bbcbc64736f6c63430008190033",
  "devdoc": {
    "author": "BuidlGuidl",
    "errors": {
      "OwnableInvalidOwner(address)": [
        {
          "details": "The owner is not a valid owner account. (eg. `address(0)`)"
        }
      ],
      "OwnableUnauthorizedAccount(address)": [
        {
          "details": "The caller account is not authorized to perform an operation."
        }
      ],
      "ReentrancyGuardReentrantCall()": [
        {
          "details": "Unauthorized reentrant call."
        }
      ],
      "SafeERC20FailedOperation(address)": [
        {
          "details": "An operation with an ERC-20 token failed."
        }
      ]
    },
    "kind": "dev",
    "methods": {
      "owner()": {
        "details": "Returns the address of the current owner."
      },
      "renounceOwnership()": {
        "details": "Leaves the contract without owner. It will not be possible to call `onlyOwner` functions. Can only be called by the current owner. NOTE: Renouncing ownership will leave the contract without an owner, thereby disabling any functionality that is only available to the owner."
      },
      "transferOwnership(address)": {
        "details": "Transfers ownership of the contract to a new account (`newOwner`). Can only be called by the current owner."
      }
    },
    "version": 1
  },
  "userdoc": {
    "kind": "user",
    "methods": {
      "acceptDeal(uint256)": {
        "notice": "Accept the current deal offer"
      },
      "depositHouseFunds(uint256)": {
        "notice": "Owner deposits funds to house"
      },
      "eliminateBoxes(uint256)": {
        "notice": "Eliminate boxes for the current round (randomly selected) - OPTIMIZED If called when an offer is pending, it implicitly rejects the offer"
      },
      "getGameState(uint256)": {
        "notice": "View functions"
      },
      "startGame(uint256)": {
        "notice": "Start a new game - player deposits tokens and selects their box"
      },
      "withdrawHouseFunds(uint256)": {
        "notice": "Owner withdraws house funds"
      }
    },
    "notice": "A Deal or Not smart contract that allows multiple players to play concurrent games Players deposit tokens to start a game and can win up to 30x their deposit House offers 50% of expected value at the end of each round",
    "version": 1
  },
  "storageLayout": {
    "storage": [
      {
        "astId": 820,
        "contract": "contracts/DealOrNot.sol:DealOrNot",
        "label": "_status",
        "offset": 0,
        "slot": "0",
        "type": "t_uint256"
      },
      {
        "astId": 8,
        "contract": "contracts/DealOrNot.sol:DealOrNot",
        "label": "_owner",
        "offset": 0,
        "slot": "1",
        "type": "t_address"
      },
      {
        "astId": 935,
        "contract": "contracts/DealOrNot.sol:DealOrNot",
        "label": "gameToken",
        "offset": 0,
        "slot": "2",
        "type": "t_contract(IERC20)315"
      },
      {
        "astId": 937,
        "contract": "contracts/DealOrNot.sol:DealOrNot",
        "label": "isMonad",
        "offset": 20,
        "slot": "2",
        "type": "t_bool"
      },
      {
        "astId": 941,
        "contract": "contracts/DealOrNot.sol:DealOrNot",
        "label": "gameIds",
        "offset": 0,
        "slot": "3",
        "type": "t_mapping(t_address,t_uint256)"
      },
      {
        "astId": 946,
        "contract": "contracts/DealOrNot.sol:DealOrNot",
        "label": "games",
        "offset": 0,
        "slot": "4",
        "type": "t_mapping(t_uint256,t_struct(Game)932_storage)"
      },
      {
        "astId": 951,
        "contract": "contracts/DealOrNot.sol:DealOrNot",
        "label": "playerGames",
        "offset": 0,
        "slot": "5",
        "type": "t_mapping(t_address,t_array(t_uint256)dyn_storage)"
      },
      {
        "astId": 955,
        "contract": "contracts/DealOrNot.sol:DealOrNot",
        "label": "requestIds",
        "offset": 0,
        "slot": "6",
        "type": "t_mapping(t_uint256,t_uint256)"
      },
      {
        "astId": 957,
        "contract": "contracts/DealOrNot.sol:DealOrNot",
        "label": "nextGameId",
        "offset": 0,
        "slot": "7",
        "type": "t_uint256"
      },
      {
        "astId": 959,
        "contract": "contracts/DealOrNot.sol:DealOrNot",
        "label": "houseFunds",
        "offset": 0,
        "slot": "8",
        "type": "t_uint256"
      },
      {
        "astId": 968,
        "contract": "contracts/DealOrNot.sol:DealOrNot",
        "label": "vrf",
        "offset": 0,
        "slot": "9",
        "type": "t_contract(IVRF)2494"
      },
      {
        "astId": 978,
        "contract": "contracts/DealOrNot.sol:DealOrNot",
        "label": "roundEliminations",
        "offset": 0,
        "slot": "10",
        "type": "t_array(t_uint256)dyn_storage"
      }
    ],
    "types": {
      "t_address": {
        "encoding": "inplace",
        "label": "address",
        "numberOfBytes": "20"
      },
      "t_array(t_uint256)dyn_storage": {
        "base": "t_uint256",
        "encoding": "dynamic_array",
        "label": "uint256[]",
        "numberOfBytes": "32"
      },
      "t_bool": {
        "encoding": "inplace",
        "label": "bool",
        "numberOfBytes": "1"
      },
      "t_contract(IERC20)315": {
        "encoding": "inplace",
        "label": "contract IERC20",
        "numberOfBytes": "20"
      },
      "t_contract(IVRF)2494": {
        "encoding": "inplace",
        "label": "contract IVRF",
        "numberOfBytes": "20"
      },
      "t_enum(GameState)913": {
        "encoding": "inplace",
        "label": "enum DealOrNot.GameState",
        "numberOfBytes": "1"
      },
      "t_mapping(t_address,t_array(t_uint256)dyn_storage)": {
        "encoding": "mapping",
        "key": "t_address",
        "label": "mapping(address => uint256[])",
        "numberOfBytes": "32",
        "value": "t_array(t_uint256)dyn_storage"
      },
      "t_mapping(t_address,t_uint256)": {
        "encoding": "mapping",
        "key": "t_address",
        "label": "mapping(address => uint256)",
        "numberOfBytes": "32",
        "value": "t_uint256"
      },
      "t_mapping(t_uint256,t_struct(Game)932_storage)": {
        "encoding": "mapping",
        "key": "t_uint256",
        "label": "mapping(uint256 => struct DealOrNot.Game)",
        "numberOfBytes": "32",
        "value": "t_struct(Game)932_storage"
      },
      "t_mapping(t_uint256,t_uint256)": {
        "encoding": "mapping",
        "key": "t_uint256",
        "label": "mapping(uint256 => uint256)",
        "numberOfBytes": "32",
        "value": "t_uint256"
      },
      "t_struct(Game)932_storage": {
        "encoding": "inplace",
        "label": "struct DealOrNot.Game",
        "members": [
          {
            "astId": 915,
            "contract": "contracts/DealOrNot.sol:DealOrNot",
            "label": "player",
            "offset": 0,
            "slot": "0",
            "type": "t_address"
          },
          {
            "astId": 917,
            "contract": "contracts/DealOrNot.sol:DealOrNot",
            "label": "entryFee",
            "offset": 0,
            "slot": "1",
            "type": "t_uint256"
          },
          {
            "astId": 919,
            "contract": "contracts/DealOrNot.sol:DealOrNot",
            "label": "gameId",
            "offset": 0,
            "slot": "2",
            "type": "t_uint256"
          },
          {
            "astId": 921,
            "contract": "contracts/DealOrNot.sol:DealOrNot",
            "label": "playerBoxIndex",
            "offset": 0,
            "slot": "3",
            "type": "t_uint256"
          },
          {
            "astId": 923,
            "contract": "contracts/DealOrNot.sol:DealOrNot",
            "label": "currentRound",
            "offset": 0,
            "slot": "4",
            "type": "t_uint256"
          },
          {
            "astId": 926,
            "contract": "contracts/DealOrNot.sol:DealOrNot",
            "label": "eliminatedBoxes",
            "offset": 0,
            "slot": "5",
            "type": "t_array(t_uint256)dyn_storage"
          },
          {
            "astId": 929,
            "contract": "contracts/DealOrNot.sol:DealOrNot",
            "label": "state",
            "offset": 0,
            "slot": "6",
            "type": "t_enum(GameState)913"
          },
          {
            "astId": 931,
            "contract": "contracts/DealOrNot.sol:DealOrNot",
            "label": "isActive",
            "offset": 1,
            "slot": "6",
            "type": "t_bool"
          }
        ],
        "numberOfBytes": "224"
      },
      "t_uint256": {
        "encoding": "inplace",
        "label": "uint256",
        "numberOfBytes": "32"
      }
    }
  }
}